:100000000C94B7050C94D4050C94D4050C94393099
:100010000C94D4050C94D4050C94D4050C94D405FC
:100020000C94D4050C94D4050C947B2C0C94532D77
:100030000C9414150C94D4050C94D4050C94D4058C
:100040000C94D4050C94D4050C94D4050C94D405CC
:100050000C94D4050C94572C0C94D4050C94D40512
:100060000C94D4050C94D4050C94D4050C94D405AC
:100070000C94D4050C94D4050C94D4050C94D4059C
:100080000C94D4050C94D4050C94D4050C94D4058C
:100090000C94D4050C94D4050C94D4050C94D4057C
:1000A0000C94D4050C94D4050C94D40505010902D4
:1000B000A10185020901A1000509190129081500FE
:1000C0002501950875018102050109300931158165
:1000D000257F95027508810609381581257F9501D0
:1000E00075088106050C0A38021581257F95017572
:1000F000088106C0C005010906A101050719E0290C
:10010000E7150025019508750181029501750881A3
:10011000010507190029FF150026FF00950675083F
:1001200081000508190129051500250195057501AE
:100130009102950175039101C009023B0002010083
:10014000A0FA0904000001030101000921110100C6
:100150000122440007058103080001090401000190
:100160000300000009211101000122490007058256
:10017000032000011201000200000008575900048A
:1001800000010102000114034B00650079006200C8
:1001900061006C006C003400340000001003590052
:1001A0006F0077006B0065006500730000000403BA
:1001B0000904000000000000000000000000000032
:1001C000000000000000000000000000000000002F
:1001D0000000000000007E0F00D4FFFFFFC70000FA
:1001E000007800000000000000002A2B280000001A
:1001F00000000000000000000000000000290000D6
:1002000000002C1E3420212224342627252E362DB2
:100210003738271E1F202122232425263333362E4C
:1002200037381F0405060708090A0B0C0D0E0F10BE
:100230001112131415161718191A1B1C1D2F313003
:10024000232D350405060708090A0B0C0D0E0F10A7
:100250001112131415161718191A1B1C1D2F3130E3
:10026000354C202000202000BABB004B657920B11E
:100270000020C0C100BEBF00484F005654003030BF
:10028000200020202020B1BCBD0042616C6CB10078
:10029000B4B500B2B300C2C3004CB6B772B100002F
:1002A000AE00AF00000000000000002F00000000C2
:1002B0000700070000123F123F1200242A7F2A1273
:1002C0000036091E241B00182629122800000007EA
:1002D000000000001E214000000040211E0000140C
:1002E000083E08140008083E0808000000307000AE
:1002F0000008080808080000003030000020100C3A
:100300000201001E2925231E0000223F200000229A
:100310003129292600122125251A001814123F1010
:10032000001725252518001E25252518000131094F
:100330000503001A2525251A00062929291E000073
:10034000003333000000003373000008141422222D
:100350000014141414140022221414080002012999
:100360000502003E59555D3E003816111638003F13
:100370002525251A001E21212112003F2121211EA1
:10038000003F25252521003F09090901001E2121E3
:10039000291A003F0404043F0000213F21000010FF
:1003A0002020201F003F040C1221003F202020208D
:1003B000003F0204023F003F020C103F001E2121BB
:1003C000211E003F09090906001E2129112E003FA8
:1003D000090919260012252529120001013F0101F2
:1003E000001F2020201F000718201807000F300CC6
:1003F000300F0021120C12210003043804030031D5
:100400002925232100007F4141000001020C10201A
:10041000000041417F00000402010204004040400E
:10042000404000000103040000102A2A2A3C003F3B
:100430002422221C001C22222224001C2222243FCF
:10044000001C2A2A2A0C0000043E0505000C52520A
:10045000543E003F080404380000003D0000002026
:1004600040403D00003F080814220000013F2000EA
:10047000003E023C023C003E0402023C001C2222E0
:10048000221C007E1422221C001C2222147E003E0C
:100490000402020400242A2A2A120000021F220059
:1004A000001E2020103E000618201806000E300CFA
:1004B000300E002214081422000E5050483E002234
:1004C000322A26220008087741410000007F000000
:1004D00000414177080800180408100C00000000D3
:1004E000000000000000000000000000000000C04C
:1004F000F0F88C86C6E7FFFFFFFFFFFFFEFCFCF86D
:10050000E080000000F0F0F00000C0E0F07070004B
:1005100000000000000000000000000000000000DB
:100520000000000000F8F8F80000000000000000E3
:100530000000000000000000000000F8F8F80000D3
:10054000F8F8F8000000000080E07078686C64C77C
:10055000C7C7C7C7C7E73F1F0F3FFFFFFFFFFFFF2B
:100560003F0F000000FFFFFF1E3FFFF3E180000090
:10057000F8FCFE3636363EBCB8000E3EFEF080F08B
:10058000FE3E0E0000FFFFFF060606FEFEFC7000AA
:10059000E6F6F63636FEFEFC000000FFFFFF000028
:1005A000FFFFFF000000003C7F6360E0C0C0C0C0F0
:1005B000C0C0C0C0FFFFC06030180F0303030100BC
:1005C0000000000000030303000000030303030016
:1005D000010303030303030301007070393F1F0786
:1005E00001000000000103030303030303010000F3
:1005F00001030303030303010000000303030000DE
:100600000303030010101000000000550000003E1E
:10061000635D5D637F417B77413E00001C22221CAD
:10062000003E0A003E0A00322A3C0026281E001C1A
:100630002A2C0000003F09360000001E2121000086
:100640000000003F0837001E2121001E2121003F2D
:10065000090600213F2100222519001E2121003F0B
:100660000936003F211E00213F21000F300F003EC0
:10067000093E003F063F003F202000FFAA7F554073
:100680000001010101010101010102020202020255
:100690000202020303030303030303040404040428
:1006A00004040505050505060606060607070707EF
:1006B0000708080808090909090A0A0A0B0B0B0CA4
:1006C0000C0C0D0D0D0E0E0E0F0F0F101011111141
:1006D00012121313141415151616171718181919C2
:1006E0001A1A1B1B1C1D1D1E1E1F20202122222327
:1006F0002424252626272829292A2B2C2D2D2E2F68
:1007000030313232333435363738393A3B3C3D3E7E
:100710003F404142434445464748494A4C4D4E4F6D
:1007200050515354555658595A5B5D5E5F6162642F
:10073000656668696B6C6D6F7072737577787A7BBC
:100740007D7E8082838587888A8C8E8F9193959613
:10075000989A9C9EA0A2A3A5A7A9ABADAFB1B3B533
:10076000B7BABCBEC0C2C4C6C9CBCDCFD1D4D6D80F
:10077000DBDDDFE2E4E7E9EBEEF0F3F5F8FAFDFFAD
:1007800000DA0281FFD9F1DB20A4A62EAF00A0C0C1
:10079000D30000A1C8D30000AED580A81F408D149F
:1007A00020000004290014001A0008211500170079
:1007B0002B0004211624074209410A46D3001D28B4
:1007C0001B23060019000500000088009100D200DC
:1007D000D1002C222A00130012000C3118001C003A
:1007E000340033310F240E420D410B468700382868
:1007F000370036001000110000004C00000000001F
:10080000E1002800A8001E001F0020002100220097
:1008100082022B0050042B012B034F14AA00DB0093
:10082000500852085108E30100000100DA002900D5
:100830002A004C002E00270026002500240023005B
:1008400045002D004F0052005100500001000100F2
:100850004F04AE00800050040000010000000000C2
:100860000000000001001E021F02200221022202DD
:1008700001002F002E00890290009100010000006D
:1008800000004901490200000000270037008352A0
:100890008452855201002E022602250224022302E0
:1008A0001F022D02310230022F020000890238029D
:1008B00031003000000000000000010000000000D6
:1008C0004F0950090100010012800480108013803C
:1008D00001000080118003801580028001000580E6
:1008E00016801780188001800000010001000100BF
:1008F0000100010001000F800E8008800780148035
:10090000010001000A8009800D80068001000100BD
:10091000010001000B800C800000010000000000BD
:10092000010001000100010001001C800100010024
:1009300001001980010001001B800100010001007D
:1009400001000100010001000000010001000100A0
:100950000100010001001A801E801D801F8001001F
:10096000010001000100010001000100010001007F
:100970000100010001000100000001000000000072
:10098000010001000100208021802280238024803A
:10099000010029802A802B802C802D80010033804B
:1009A000348035803680378000000100010001006E
:1009B00001000100010028800F802780268025800B
:1009C00001003280318030802F802E8001003C80F9
:1009D0003B803A8039803880000001000000000030
:1009E0000100010020783A003B003C003D003E0041
:1009F00021782378257827780100087E22782478CA
:100A000026782878087E097E0000007C007E0100A0
:100A100001000100440043004200410040003F004B
:100A2000010001003478337832783178017E01009A
:100A3000047E027E037E057E0000007C0000000034
:100A4000010001006162636465666768696A6B6CD6
:100A50006D6E6F707172737475767778797A3132E2
:100A60003334353637383930524542545F2D3D5B8B
:100A70005D5C233B27602C2E2FB1030000B20300E6
:100A800000B3030000B4030000B5030000B6030088
:100A900000B7030000B8030000B9030000BA030068
:100AA00000BB030000BC030000BD030000BE030048
:100AB00000BF030000C0030000C1030000C3030027
:100AC00000C2030000C4030000C5030000C6030009
:100AD00000C7030000C8030000C9030000E00000D5
:100AE00000E1000000E8000000E9000000EC000068
:100AF00000F2000000F9000000B1000000D7000083
:100B000000F700000060220000482200006422007C
:100B100000652200001E220000B00000000022003C
:100B2000000322000008220000112200002B2200F6
:100B3000001A220000022200000722000082220088
:100B40000029220000052200002A22000095220030
:100B500000922100009021000094210000D2210089
:100B600000D4210000A52200002022000000112452
:100B70001FBECFEFDAE0DEBFCDBF11E0A0E0B1E0F5
:100B8000E4E3F5E602C005900D92AC3DB107D9F75C
:100B900026E0ACEDB1E001C01D92AE32B207E1F744
:100BA0000E942A280C9461320C9400009C01860F4C
:100BB000971F6095709537FD07C06823792377FFED
:100BC00009C08FEF9FE70895682B792B77FD02C04E
:100BD00080E090E8089520E287FF02C081952DE231
:100BE0006AE00E94B531905D9093290681110CC096
:100BF0002093280620E2822F20E28093270620936C
:100C0000260686E296E008956AE00E94B531905D7E
:100C100090932806811579F3805DEFCF8F708A302D
:100C200010F4805D0895895A08950F931F93CF9310
:100C3000DF93EC01FB0180919F01811101C084E0F1
:100C40008150990B01E010E002C0000F111F8A953E
:100C5000E2F788819981B8010E94C3319B018883A2
:100C600099838A819B81B8010E94C3318A839B83C7
:100C700061388FEF7807ECF060387105E4F4658334
:100C800021388FEF3807CCF020383105C4F4822F9B
:100C900081958483411519F0619565832483809142
:100CA000A001813070F079F0DF91CF911F910F9109
:100CB000089561E8E4CF6FE7E2CF21E8E8CF2FE7BE
:100CC000E6CF1582F1CF1482EFCF80919001909101
:100CD0009101A0919201B0919301F90180839183D8
:100CE000A283B3831092900110929101109292010D
:100CF000109293010895982F92959F7061F420E0CF
:100D0000982F892F8695869511F02E5F982F892F21
:100D10008695820F089524E0F4CF8093D605089538
:100D2000292F983090F5863080F590E036E0239FAB
:100D3000800D911D112451E081FD54E080FD550F7F
:100D400082FD529523E0969587952A95E1F7FC015F
:100D5000EE0FFF1FE80FF91FE255FA4F20E030E0D9
:100D600070E04191DF01CB01022E02C0969587957C
:100D70000A94E2F78695880B8427852384278E932F
:100D80002F5F3F4F2330310561F70895292F9830A9
:100D900070F5863060F590E036E0239F800D911D60
:100DA0001124682F677023E0969587952A95E1F7BF
:100DB000FC01EE0FFF1FE80FF91FE255FA4F40E06C
:100DC00050E080E0219130E0062E02C03695279554
:100DD0000A94E2F72170042E01C0220F0A94EAF768
:100DE000822B4F5F5F4F4330510561F7089580E0DC
:100DF0000895E091DF059091DE05E91302C080E0DF
:100E000008952E2F30E057E0E59FF0011124E052C5
:100E1000FA4F5181561306C05081581303C05581B3
:100E2000541304C0F901E395E770E7CF81E008951A
:100E30008091DF052091DE05281301C008950196F9
:100E40008770FACF982F90958091210689238093FF
:100E5000210608958091D405811531F01092D405B2
:100E60001092DC051092DD050895923568F59035F5
:100E700008F0A1C0883E9105D0F4803E910500F5B0
:100E8000853A910550F484309105D0F421E0019722
:100E900009F020E0822F90E008959C012D5C31093B
:100EA0002331310508F466C080E090E00895903465
:100EB00040F4903208F095C09C0131503F31A0F7CA
:100EC00008959F70906A0895803822E59207C8F5CA
:100ED000803632E5930708F054C0803442E5940729
:100EE000D0F4803262E5960708F046C0282F269598
:100EF000269570E2279F90011124837041E050E015
:100F0000BA0102C0660F771F8A95E2F7CB01822BE8
:100F1000932B9D680895282F26952695277070E2BB
:100F2000279F90011124837041E050E0BA0102C074
:100F3000660F771F8A95E2F7CB01822B932B9C6873
:100F40000895803C72E5970748F4282F2F71803A66
:100F5000924568F5922F84EF906A08959C01205C79
:100F600032452032310508F09FCF982F9F7180EFD6
:100F7000906A0895906508958F71982F81EF906A17
:100F80000895282F26952695277040E2249F9001EA
:100F90001124837041E050E0BA0102C0660F771F50
:100FA0008A95E2F7CB01822B932B9A680895922FB2
:100FB00080E0906208959C0143E0220F331F4A9520
:100FC000E1F73F70682F6F71462F50E084FF04C037
:100FD00070E1679FA0011124242F352BC90190696E
:100FE00008959F71E6CF972F7830B8F46630A8F453
:100FF0008730B0F470E026E0929F600D711D1124DF
:10100000FB0190E3899FE00DF11D1124EE0FFF1FFE
:10101000EC55F84F85919591089580E090E0089502
:1010200081E0FCCFA4E0B0E0E8E1F8E00C947F318F
:1010300089839A830091D7058091D605082B87E094
:101040008B831C8210E0C8010B8002C095958795A8
:101050000A94E2F780FD0DC08B819C8101978B8300
:101060009C83019681F7F12C8F2D2496E5E00C945A
:101070009B31FB8069817A818F2D0E94F3070E944A
:101080003507019749F3F0CFA3E0B0E0EAE4F8E0D8
:101090000C948231FC012581408151814A835B831C
:1010A0002115A1F0611591F0CA010E9412088983EF
:1010B000682F8A819B810E9490066A817B81898149
:1010C0000E94F3072396E2E00C949E318A819B8173
:1010D0000E94C6068983F1CFA2E0B0E0E2E7F8E023
:1010E0000C94823189839A830E94120869817A81E3
:1010F0000E94F3070E9435072296E2E00C949E318D
:10110000FC0124812115A1F0808191810E946C084D
:10111000282F92959F70963099F060F4925F9F709F
:10112000923030F4203FB1F038F481E0283E38F0BE
:1011300080E008959A5FF3CF81E0243FC9F70895D6
:1011400091E0213F09F090E081E0283E08F080E046
:10115000892B089581E0089580E00895F894E82FA0
:10116000E295EF70F0E041A18F7021E030E0B9012D
:1011700001C0660F8A95EAF7862F962F90959423E3
:1011800091A392A1892B82A3789408958091370529
:1011900080934C018091380580935F0108950895F4
:1011A00080918501811114C080918701811110C047
:1011B0008091860181110CC09091D90596959695E4
:1011C000969581E020917D01921380E081700895D1
:1011D00081E0FCCF8091860191E089278093860190
:1011E00010928301109284010895909187018115D6
:1011F00041F09F5F909387011092830110928401C8
:1012000008959150F7CFA0E0B0E0E9E0F9E00C9448
:101210007A31082F162FE901E42FF0E0E058F94F5A
:1012200061110BC0E4918E2F3E2F3983E8838A83AE
:10123000CDB7DEB7EAE00C949631E4913E2F86E01C
:10124000089F700111246D01CA94C701B6010E9464
:101250005E31802F90E0880F991F25E5269FA00121
:10126000279F500D1124841B982F990F980FD6019A
:10127000A11BB109EA9FA001EB9F500D1124852FFE
:10128000199F50011124AB2CB12CD601AA19BB090E
:101290005D01EA9DD001EB9DB00D11246330710515
:1012A00061F1F601E91BF1091E9F50011F9FB00C6F
:1012B0001124AB2CB12CCA18DB083C9D80013D9D4C
:1012C000100D1124E12F9CEFE91693E0F90658F474
:1012D00061307105B1F06230710509F0A6CFE32FDE
:1012E000352F812FA2CF6430710571F06630710502
:1012F00009F49BCFE52F8B2F98CF352F8E2FEB2F17
:1013000094CFE32F3B2F91CFE52F832F312F8DCF1C
:101310008091CC05823060F4817082608093CC052E
:101320008091CF05873918F086E98093CF0508951D
:101330008A31B0F381708861F1CF1092CA05809133
:10134000CB0584608093CB050895FA01811101C01B
:10135000FB0109950895FC01680F791F8FEF41E3A8
:101360009191892728E030E0982F990F87FF09C0D5
:10137000892F842721503040B9F7E617F70781F706
:101380000895892FF7CF63E070E086E395E00E942F
:10139000AB0990913505891318C0E0913605EC3002
:1013A000A4F488E0E802F0011124E45EFE4F068018
:1013B000F781E02D309749F029E535E04091380577
:1013C00069E375E080913705099508952FB7F89482
:1013D00060911C0570911D0580911E0590911F055F
:1013E0002FBF0895CF93C82F80919A018C1751F089
:1013F0000E94E60960939B0170939C0180939D017C
:1014000090939E01C0939A01CF910895A1E0B0E01E
:10141000ECE0FAE00C94823189830E947B06982FDD
:1014200081E0963009F080E00E94F2098981809382
:10143000D7052196E2E00C949E3121E001C0220FF5
:101440008A95EAF78091D705822B0E94060A0895B3
:1014500021E030E0A90101C0440F8A95EAF7842F0A
:1014600080959091D70589230E94060A089590914E
:10147000D905809589238093D905282F277089F471
:10148000891779F09091200692FF0BC0869586957A
:1014900086950E94280A1092D9051092DA051092BA
:1014A000DB0508958091FA0108950895FC012091CB
:1014B000F0013091F1012617370748F061157105E9
:1014C00029F49091E8009E779093E8009B0190E0CA
:1014D0002115310541F4911106C08091E80082FF89
:1014E00032C080E00895809179058115C1F1853081
:1014F000C1F18091E80083FD30C08091E80082FD59
:10150000ECCF8091E80080FFE3CF8091F300409121
:10151000F200582F2115310519F04830510558F0C7
:1015200091E04830510509F090E04091E8004E7795
:101530004093E800CDCF81918093F1002150310993
:101540004F5F5F4FE7CF80917905811541F085307E
:1015500041F08091E80083FFC0CF81E0089582E0F0
:10156000089583E00895982F9093E900891771F00A
:101570007091EC002091ED005091F00021FD09C028
:101580009F5F973089F78093E9000895762F242F85
:1015900050E03091EB003E7F3093EB003091ED0056
:1015A0003D7F3093ED003091EB0031603093EB00E4
:1015B0007093EC002093ED005093F0002091EE002A
:1015C00027FDDECF08958091EA0187FF13C0809147
:1015D000E80082FF06C08091E8008B778093E800E6
:1015E0000895809179058111F2CF08958091790550
:1015F0008115D9F38091E80080FFF8CF8091E80051
:101600008E77ECCF2091E4003091E50095E6A901BA
:101610002091EC00822F817020FF06C08091E800AD
:1016200080FF06C080E008952091E80022FD1AC0E6
:1016300080917905811589F0853089F08091EB00E2
:1016400085FD0FC02091E4003091E500421753075B
:10165000F9F29150E1F684E0089582E0089583E084
:10166000089581E00895A0E0B0E0E9E3FBE00C9488
:101670007C31C8EDD0E088818F7E8883E7EDF0E093
:1016800080818160808384E082BF81E08093E90172
:1016900088818E7F888302EE10E0E2EE1082109245
:1016A000DA006801CA94E1EE108288818F7788831E
:1016B00088818068888388818F7D888319BC109297
:1016C00079051092E8011092EE041092E70176017C
:1016D000EA94E0EE80818B7F8083888181608883BB
:1016E00042E060E080E00E94B30AF60180818E7FD4
:1016F0008083E2EE80818160808380818860808346
:10170000E0EE80818E7F8083888180618883CDB781
:10171000DEB7E8E00C949831E8EDF0E080818E7F50
:1017200080831092E2001092DA001092E100A0EEA5
:10173000B0E08C9181608C9380818F77808319BC1D
:10174000A7ED8C918E7F8C9380818F7E8083109209
:10175000E901089528E030E043E060E086E30E947C
:10176000A32D089554985C9A879A8F9885E08A955E
:10177000F1F7000089B187988F9A90EA9A95F1F76E
:101780008295839581700895CF93DF93CEE1D091B8
:101790008D018C2F8D1BD82F80918E018115B1F07A
:1017A00080918F01C81B0E94B20B811589F080E0E7
:1017B00080938801D0938901CD0F10928A01C09344
:1017C0008B01C0938C01DF91CF910895C0E0EBCFE6
:1017D0008C2FEECF80918D01F90180830E94C40B84
:1017E000089580917A05811115C088EC90E02091D0
:1017F000E30027FD16C0EFE3FCE93197F1F700C0E5
:1018000000000197A1F782E080937A050E948C0B7B
:101810001092790581E090917A05913031F080E065
:10182000089581E080937A05F5CF08950E94F10B29
:10183000811519F00E94E60908950E94E609209199
:101840009E0530919F054091A0055091A105620F22
:10185000731F841F951F08950E94F10B811561F07D
:10186000E091A405F091A505309729F00190F08151
:10187000E02D0995089580E00895A8E0B0E0E3E444
:10188000FCE00C94803189839A836B837C834D8345
:101890005E83809185050AE010E08A3010F001E057
:1018A00010E021E02F8318866B817C8189819A81E9
:1018B000ED81FE81099581111BC02F8138852F5F35
:1018C0003F4F2F8338870217130794F0C901889F71
:1018D0009001899F300D300D112480E090E045E3A8
:1018E0004A95F1F70000019682179307C1F7DCCF04
:1018F0002896E4E00C949C31409189018091CC05BC
:1019000080FF24C02091880130E0C901880F991F11
:10191000820F931F8C5D9D4F539A6BB1677F7BB194
:101920007860EFB7F89450E09A01220F331F240F2C
:10193000351F280F391F82179307E9F4EFBF8FE592
:1019400094E00197F1F700C00000089580918A01AA
:1019500090918B01282F30E0F901EE0FFF1FE20F6D
:10196000F31FEC5DFD4F891768F611821082128219
:101970008F5F3396F8CFDC014D91CD0158E07BB9F4
:10198000000000C047FF6BB9440F000000C000C05A
:1019900000C06BB900C05A9591F7CDCF9091CC059E
:1019A00090FF11C090918A0150918B01292F30E056
:1019B000F901EE0FFF1FE20FF31FEC5DFD4F9517CE
:1019C00018F00E947C0C08958183608342839F5F9E
:1019D0003396F5CFA3E0B0E0E0EFFCE00C9480316B
:1019E0008C018091230281110AC09E012F5F3F4F1D
:1019F00046E96FEF0E9403098A8180932302F80170
:101A00006481613049F06230D1F08091230240E07E
:101A1000611531F040E015C06091230240E080E0A4
:101A20000E94CE0CF801848190E0019663E070E0A2
:101A30000E94C33184832396E4E00C949C3140914E
:101A4000230280E060E0ECCF0F931F93CF93DF93EE
:101A5000EB018A0190917905943061F58093E9005A
:101A60008FEF9091E80095FD06C095ED9A95F1F7FE
:101A700000008150B1F78091E80085FF1BC00E94F3
:101A8000020B811112C08091E80085FD06C0809193
:101A9000E8008E778093E800F2CF88818093F10090
:101AA0000150104011F02196EECF8091E8008E7722
:101AB0008093E800DF91CF911F910F910895CF930C
:101AC000DF93EC0148E050E0BC0181E00E94240D6E
:101AD00088E0FE01A2EFB1E001900D928A95E1F756
:101AE000DF91CF91089546E050E0BC0182E00E9472
:101AF000240D0895A1E0B0E0E0E8FDE00C9482310F
:101B000089830E94AA0B89810E94152E8FE792E09B
:101B10000197F1F700C000000E94352E898395E0FF
:101B20009A95F1F700000E94552E85E68A95F1F707
:101B3000000010922B0689812196E2E00C949E31E0
:101B4000A2E0B0E0E6EAFDE00C94823189836A838A
:101B50000E94AA0B898180680E94152E8A810E94AA
:101B6000152E8AEB8A95F1F700C00E94552E83E46A
:101B700092E00197F1F700C000002296E2E00C9499
:101B80009E31682F893708F068E76093980191E0EB
:101B90009093990190918D01911539F061508111C7
:101BA00001C064E08FE00E94A00D0895209198018B
:101BB000211101C025E0982F990F990B820F911DDB
:101BC000181619060CF081E00E94C10D0895FB0162
:101BD00080810E94C10D0895AEE0B0E0E2EFFDE02B
:101BE0000C947C314F835887162F6987072F7A878B
:101BF0008B879C8780918D01811509F447C0809166
:101C00002B06811107C060E080E50E94A00D81E0F5
:101C100080932B060E94AA0B80E50E94152E2AEBCA
:101C20002A95F1F700C00E94352E0E94352E0E94A1
:101C3000352E7C010E94352ED82ECE2CDF28ED8645
:101C4000DE860E94352E7C010E94352EF82A0E94E5
:101C5000552E25E02A95F1F70000F8946D857E85D4
:101C600080919001909191010E94D60580939001FE
:101C700090939101B70180919201909193010E94FC
:101C8000D605809392019093930178940E94F10B72
:101C9000811509F46DC00E94E60920912206309159
:101CA000230640912406509125066B017C01C21A3F
:101CB000D30AE40AF50A9601A70128303105410547
:101CC000510508F455C06093220670932306809353
:101CD00024069093250620919B0130919C01409110
:101CE0009D0150919E01621B730B840B950B623317
:101CF00071058105910580F4109290011092910177
:101D000010929201109293011092940110929501F9
:101D10001092960110929701F0909A010E94B20BD6
:101D2000F114E9F1482FBE01695F7F4F80E991E02E
:101D30000E941506E0909A01F0908D010E94B20B6E
:101D400091E0482F4927EF1409F452C0BE01695FA2
:101D50007F4F84E991E00E94150619870A8786E083
:101D6000FE013796A5EAB1E001900D928A95E1F760
:101D700019870A8786E0FE013796DE0111960190E9
:101D80000D928A95E1F729813A814B815C816D81C1
:101D90007E8180E090E02E96E8E00C9498312091CE
:101DA00092013091930111E821389FEF39072CF00F
:101DB000122F203831050CF01FE72091900130914F
:101DC000910101E821389FEF39072CF0022F2038CC
:101DD00031050CF00FE7811511F011950195109266
:101DE0009001109291011092920110929301A2CF52
:101DF000809196019091970111E881382FEF920719
:101E00002CF0182F803891050CF01FE78091940179
:101E10009091950101E881382FEF92072CF0082F5F
:101E2000803891050CF00FE7411511F011950195DF
:101E300010929401109295011092960110929701C0
:101E40008CCFA2E0B0E0E7E2FFE00C9482310E9488
:101E50009B2D269A0E94AA0B6AE58AE30E94A00D98
:101E60002FEF80E792E0215080409040E1F700C0E2
:101E7000000082E00E947A0D83E00E947A0D84E0E7
:101E80000E947A0D85E00E947A0D86E00E947A0D0C
:101E900060E080E10E94A00D80E00E947A0D8983BD
:101EA00081E00E947A0D8A830E94552E2981223476
:101EB00069F48A81813051F480938D0164E08FE070
:101EC0000E94A00D2296E2E00C949E3110928D01AA
:101ED000F9CF9091200692FB222720F9281779F05C
:101EE00080FB92F99093200660911F067091200666
:101EF00084E090E00E944B3282E00E94370A08950D
:101F00009091C1058091DA02981308C08091C205B2
:101F1000811561F09091DB02891741F0E091A405F1
:101F2000F091A505309799F581E019C08091C3051E
:101F3000811521F09091DC028913F0CF8091C505C5
:101F4000811521F09091DE028913E8CF8091C405BC
:101F5000811529F09091DD028913E0CF80E0209176
:101F6000C10596E0E0ECF5E0DF01392F1D923A95CE
:101F7000E9F72093C105A9EDB2E001900D929A9581
:101F8000E1F791E0211101C090E0892B089582E0F2
:101F90008093C0050480F581E02D80EC95E00995E3
:101FA000C3CF815D883088F44091C10521E030E0E5
:101FB000F90101C0EE0F8A95EAF78E2F611531F015
:101FC0004E2B4093C1050E94800F089580954823B1
:101FD000F8CFE5E8F1E083E0DF011D928A95E9F7AB
:101FE000E1E8F1E084E0DF011D928A95E9F70895C8
:101FF00090917C01981721F080937C010E94E90F59
:10200000089520917E0130917F012817390731F022
:1020100080937E0190937F010E94E90F0895A8E0CC
:10202000B0E0E5E1F0E10C94823166EE7EEF80E015
:1020300090E00E944B3260E082E090E00E942D32FE
:1020400060E083E090E00E942D321092D60560E0BF
:1020500074E184E090E00E944B3260E086E090E022
:102060000E942D326FEF87E090E00E942D3260E0F9
:1020700070E0AB0188E090E00E943F3260E084E2D3
:1020800090E00E942D3260E087E190E00E942D32C6
:1020900060E08CE090E00E942D3260E08DE090E006
:1020A0000E942D3219821A821B821C821D821E827E
:1020B0001F82188648E050E068E170E0CE0101968A
:1020C0000E941D3260E070E0AB0180E290E00E946F
:1020D0003F3260E070E0AB018FE090E00E943F3261
:1020E00060E070E0AB0183E190E00E943F3228960F
:1020F000E2E00C949E310F93CF93DF9300D000D099
:1021000000D00F92CDB7DEB729833A834B83052FDA
:102110006C837D838E839F830E94880949815A81C5
:102120006B81702F88E090E00E943F326C81262FF7
:1021300060E070E0CB01622F84E20E942D3227968E
:102140000FB6F894DEBF0FBECDBFDF91CF910F91D8
:102150000895ECECF5E083E0808311828FEF8283B9
:1021600086E9838314828091CB0583608093CB05BD
:10217000758123E030E04FEF56E960E0868197817A
:102180000E947B1008958091D005833018F48F5FF2
:102190008093D0052091CC053091CD054091CE059E
:1021A0005091CF056091D0057091D1058091D205F5
:1021B0009091D3050E947B1008958091D0058115E0
:1021C00019F081508093D0052091CC053091CD0538
:1021D0004091CE055091CF056091D0057091D10509
:1021E0008091D2059091D3050E947B100895A4E0C0
:1021F000B0E0EDEFF0E10C947C31082FF62E142FB7
:102200002C838091CC0580FF45C09091CD05901323
:1022100008C09091CE05961304C09091CF059417F5
:1022200029F09091CB0592609093CB05D82ED6944F
:10223000ED2DF0E0E554FE4F90819093C9058E7F1F
:10224000823061F5412F173908F046E99E012F5F72
:102250003F4F6F2D802F0E9403094B8169818A8136
:102260000E94CE0C0093CD05F092CE051093CF05C1
:102270008C81811579F02091CC056091D005709109
:10228000D105302F4F2D512F8091D2059091D3053C
:102290000E947B102496E8E00C949831923011F75C
:1022A000EEEFED0DE695F0E0E558F94FC490E12C26
:1022B00060918C01E61618F00E947C0CD3CFEC9C48
:1022C000C001112470E00E945E31802FD0FC16C046
:1022D000860F40918A014E0D5527551F9A01220FF6
:1022E000331F240F351F2C5D3D4F412F173908F048
:1022F00046E96F2D0E940309E394DACF861BE9CFEC
:10230000ECECF5E0818121E0438162818F5E0E94E7
:10231000F7100895ECECF5E0818121E043816281C2
:1023200081510E94F7100895ECECF5E0628121E103
:10233000620F08F46FEF21E0438181810E94F71062
:102340000895ECECF5E0628121E1621B08F460E0A5
:1023500021E0438181810E94F7100895ECECF5E0C3
:1023600043812FE0420F08F44FEF21E06281818129
:102370000E94F7100895ECECF5E043812FE0421B3A
:1023800008F440E021E0628181810E94F710089505
:102390006091C8058CE090E00E942D320895109263
:1023A000DF0284E08093C8050E94C8110895A5E06B
:1023B000B0E0EDEDF1E10C9480312A833B830C8396
:1023C0001D83082F880F110B41155105B1F0F8013D
:1023D00033E0EE0FFF1F3A95E1F7E45EFE4F818197
:1023E0009281805E9A4FE0812E2F30E04E1751058A
:1023F00008F49A01A9010E940032C8010E94DC3051
:102400008983811501F16C817D8161157105D9F098
:10241000C80123E0880F991F2A95E1F7FC01E45ECB
:10242000FE4F2381422F50E06217710508F4AB0183
:10243000845E9E4FFC0164817581605E7A4F8A8163
:102440009B810E94003289812596E4E00C949C31A6
:10245000A4E0B0E0EEE2F2E10C948031409110058E
:102460005091110560911205709113052FB7F894E2
:1024700080911C0590911D05A0911E05B0911F052E
:102480002FBF841B950BA60BB70B11E0843691056B
:10249000A105B10518F10E94160CDC01CB010296D2
:1024A000A11DB11D89839A83AB83BC8300E010E03A
:1024B000980144E050E0BE016F5F7F4F82E00E94D0
:1024C000D711182F811551F00E94E609609310056D
:1024D000709311058093120590931305812F249614
:1024E000E4E00C949C31A0E0B0E0E9E7F2E10C9468
:1024F0007C31EB01942FB901A801C880D980EA8012
:10250000FB80EFB7F89400911C0510911D052091F8
:102510001E0530911F05EFBF0C191D092E093F093B
:10252000043611052105310510F4911561F08D0176
:102530009D010E94D711811539F00E94E609688338
:1025400079838A839B8381E0CDB7DEB7E8E00C9482
:102550009831ABE0B0E0EFEAF2E10C94803128E092
:10256000ECECF5E0CE010196DC0101900D922A958C
:10257000E1F73091C9052091CA055091CB05398703
:102580002A875B8741E09C01511101C040E00BE0CC
:1025900010E06CE075E083E00E94731281111092EC
:1025A000CB052B96E4E00C949C31A1E0B0E0EBED80
:1025B000F2E10C94803180910705898320913405E4
:1025C00090E041E02817190609F440E08D019E01D2
:1025D0002F5F3F4F68E075E084E00E947312219600
:1025E000E4E00C949C31A7E0B0E0E9EFF2E10C9458
:1025F00080316E837F8301E010E09E012B5F3F4FAF
:1026000040E050E0BA0180E00E94D711182F8115F8
:1026100009F454C0409118055091190560911A05AC
:1026200070911B052FB7F89480911C0590911D05A2
:10263000A0911E05B0911F052FBF841B950BA60B03
:10264000B70B84369105A105B10548F464E070E04C
:1026500081E295E00E94AB099D81891779F104E040
:1026600010E09E012F5F3F4F40E050E0BA0181E053
:102670000E94D711182F64E070E081E295E00E947B
:10268000AB099D81981328C0111531F10E94E6090C
:10269000609318057093190580931A0590931B0594
:1026A00089819A81AB81BC81809314059093150533
:1026B000A0931605B093170581E00FC08091210506
:1026C00090912205A0912305B091240589839A83D6
:1026D000AB83BC831111E4CF80E04091140550918D
:1026E00015056091160570911705EE81FF814083F5
:1026F0005183628373832796E4E00C949C31A9E0B4
:10270000B0E0E5E8F3E10C947E318D83F62E4E8344
:102710005F83E22E08871987809185058A3028F02B
:1027200080E02996E6E00C949A318D818930C4F3DB
:1027300019828A836B832C8363E070E0CE0102965A
:102740000E94AB098983F0924C01E0925F0100E0A6
:1027500010E0980144E050E0BE016F5F7F4F85E0DC
:102760000E94D7118115E1F24F2D50E098016E8142
:102770007F8186E00E94D711811591F2980141E096
:1027800050E0BE016B5F7F4F87E00E94D71181153B
:1027900039F20E2D2885398540E050E0BA0188E0F5
:1027A0000E94D711BECFA4E0B0E0E9EDF3E10C94B4
:1027B0007E3189839A837B0164E670E088E70E941A
:1027C000842E8C0189818B839A819C83EB81FC818F
:1027D000EE0EFF1E17FD10C0EB81FC81849164E6B4
:1027E00070E00E94F52E8C018B819C8101968B8379
:1027F0009C838E159F0571F70E948E2F81E0011535
:10280000110509F080E02496E6E00C949A3180915D
:10281000E5048115F9F00E94E609DC01CB01805A3C
:102820009541AF4FBF4F8093E6049093E704A09388
:10283000E804B093E9048091070581110BC062E0C0
:1028400070E081EA92E00E94D313811519F081E0D3
:102850008093070508958091E504811569F08091C2
:102860000705811549F062E070E08FE992E00E946F
:10287000D3138111109207050895CF93DF93282F6A
:1028800081E02A3019F02D3031F480E00E94C0142C
:10289000DF91CF9108958091E2029091E30236E0BA
:1028A000FC01ADE1B2E001900D923A95E1F730EE16
:1028B000320F343A08F456C026E0FC0111922A95F2
:1028C000E9F7C091E202D091E30246E050E0BE0198
:1028D0008DE192E00E94F3319E01245E3240892B0B
:1028E00041F1C90145E0969587954A95E1F741E0A8
:1028F00050E0BA0102C0660F771F8A95E2F7CB015C
:102900006091E0027091E102862B972BB9016B5F19
:102910007F4FE5E076956795EA95E1F702C0440FB1
:10292000551F6A95E2F7842B952B8093E0029093D4
:10293000E1022A5F3F4F4091EA04642F70E0C90131
:102940000E945E31481B463010F4240F311D323096
:1029500010F020E030E02C513D4F2093E202309304
:10296000E30296CF2052330B46E0429FB001439FD3
:10297000700D11246D557D4F50E00E94DD31A1CFC7
:10298000CF93382FE091E202F091E302E45EF2404F
:102990002091EA04622F70E0CF010E945E31281B73
:1029A000822F311569F066E00E94A931C82FC1114C
:1029B00002C0CF910895C15080E20E943D14F7CF2C
:1029C0008E0F9F2F911D923010F080E090E08C517F
:1029D0009D4F8093E2029093E302EBCFCF93DF937E
:1029E000EC01FE018491811103C0DF91CF91089524
:1029F0000E943D142196F5CF0F931F93CF93DF9341
:102A0000EC01FC0101900020E9F78F010150110950
:102A1000C017D10728F0DF91CF911F910F91089532
:102A200089910E943D14F4CF1F921FB61F9211246A
:102A30008F939F93AF93BF938091ED04811113C047
:102A400080911C0590911D05A0911E05B0911F0558
:102A50004196A11DB11D80931C0590931D05A09367
:102A60001E05B0931F05BF91AF919F918F911F904D
:102A70001FBE1F9018952FB7F89480911C05909158
:102A80001D05A0911E05B0911F052FBF08958091CF
:102A900021069091D805892B8093DE018091D40581
:102AA000811519F10E943B152091DC053091DD055F
:102AB000821B930B883B9B4010F00E942A07809159
:102AC000DE019091D405892B8093DE0120E080EE19
:102AD00091E0FC013081019631112F5F31E0863E9B
:102AE0009307B9F721110E942A0748E050E066EAEF
:102AF00075E08EED91E00E94F331892BA9F088E01A
:102B0000EEEDF1E0A6EAB5E001900D928A95E1F7CD
:102B1000E091A405F091A505309731F00280F38192
:102B2000E02D8EED91E009950895811521F00E9428
:102B300022070E9447150895811539F090912106CA
:102B4000982B909321060E94471508950F931F9389
:102B5000CF93C82F811549F18CEF8C0F813AB8F5CE
:102B600000EE11E0F8018081C81719F1319681E07B
:102B7000E63EF807C1F7EFEF80E0D8019C91C91756
:102B800091F00F5F1F4FEF3F19F4911101C0E82F33
:102B90008F5F863091F7EF3F31F0FE2FFF0FFF0B75
:102BA000E252FE4FC2830E944715CF911F910F91B1
:102BB0000895E0EEF1E08191C81302C0DF011E929A
:102BC000A1E0E63EFA07B9F70E944715D4CF80E2AC
:102BD0008C0F883060F4C77081E001C0880FCA95FF
:102BE000EAF7C0912106C82BC0932106DCCF83E30E
:102BF0008C0F8331D0F661E08C2F0E94D10FD5CF9E
:102C0000811541F19CEF980F913A70F4E0EEF1E0FC
:102C10009191891302C0DF011E9291E0E63EF9070F
:102C2000B9F70E944715089590E2980F983058F42C
:102C3000982F81E091FD84E090FD880F92FD8295B0
:102C40000E942207EECF93E3980F933118F460E0CF
:102C50000E94D10F0895A3E0B0E0E1E3F6E10C9407
:102C6000823189838933D1F480E58A831B8289810B
:102C70000E94A6158FE99FE00197F1F700C00000C0
:102C80008A819B8101978A839B83892B99F789810C
:102C90000E9400162396E2E00C949E3185E0E5CF79
:102CA000A4E0B0E0E6E5F6E10C947E31E82FF0E038
:102CB000EE51FE4F24912983282F2695269526959F
:102CC00030E0F901EE52FE4F0491877010E0082EBB
:102CD00002C0159507950A94E2F7F901EE53FE4FED
:102CE000E490F12C082E02C0F594E7940A94E2F7E0
:102CF000F901EE54FE4F3491232F30E002C0359598
:102D000027958A95E2F72B833C8300FF03C081EE71
:102D10000E94A615E0FE03C086EE0E94A6158981DA
:102D20000E942B16E0FE03C086EE0E94001600FFF4
:102D300003C081EE0E9400168B819C8180FF03C03E
:102D40008CE20E942B162496E6E00C949A31EF92C6
:102D5000FF921F93CF93DF9300D000D000D00F924B
:102D6000CDB7DEB76A837B838C839D833091C805A2
:102D700039838CE1E82EF12C87E08E831F8221E0DD
:102D80008A819B81AC81BD810E2C04C0B695A7952C
:102D9000979587950A94D2F7182F1F70211561F027
:102DA0009981943061F51A3050F18091C8058230D4
:102DB000B9F482E60E942B168091C8058230A1F4F6
:102DC0008AEF810F1A3040F4175F812F90E06AE09C
:102DD00070E00E94C331875A0E942B1620E015C074
:102DE00080E30E945016E8CF86EF810F863028F0EE
:102DF00080E3810F0E945016F1CF87E5FACF1111C1
:102E0000DBCF8E819F810497BCF28E819F810197D9
:102E10008E839F8394E0E91AF1088E819F81019649
:102E200009F0AECF27960FB6F894DEBF0FBECDBF28
:102E3000DF91CF911F91FF90EF900895811539F0A8
:102E40009091D805982B9093D8050E944715089526
:102E5000811541F080959091D80589238093D805FC
:102E60000E9447150895EF92FF920F931F93CF93FF
:102E7000DF93EC018B017C01FA9480E09FE1F9166D
:102E800028F4CB3181E0D80709F581E00E941E17B4
:102E90008C2F0E94A6158FE99FE00197F1F700C0E3
:102EA000000001501040B9F78C2F0E94001680E0FE
:102EB0009FE1F91620F4CB31D14051F481E00E941A
:102EC0002817CDB7DEB7E6E00C949A3183E0DECF69
:102ED00083E0F5CF0E942C0C8093C7059091C80524
:102EE000913029F481FF03C089E30E942B16809161
:102EF00021068093C605109221061092D805809174
:102F0000C8058230C9F030F481110FC082EE0E94F2
:102F1000A61504C0843021F1853039F18FE39CE996
:102F20000197F1F700C00000089565E070E088E1C6
:102F300093E00E943317F2CF8091C70580FD03C054
:102F400083E50E942B1682EE0E94A6158FE39CE972
:102F50000197F1F700C0000087E50E942B16DECF35
:102F600086EE0E942B1688E1F8CF65E070E08BE1D9
:102F700091E00E94331765E070E085E290E00E94E6
:102F8000331765E070E088E290E0D3CFE0EEF1E047
:102F900086E0DF011D928A95E9F71092D8050E941C
:102FA00047150895109221060E94C6172FEF84E35B
:102FB0009CE0215080409040E1F700C0000088E193
:102FC0009AE00FB6F894A895809360000FBE909396
:102FD0006000FFCFAAE2B0E0E0EFF7E10C948131AE
:102FE0008AEE91E0FC0101962091F100208321E01E
:102FF000823F9207B9F78091EB01893009F458C0FC
:10300000C8F4823009F4B5C0833009F484C081303B
:1030100081F18091E80083FFE9C08091EA019091FD
:10302000EB019A3008F0E2C0E92FF0E0ED59FD4CD9
:103030000C94D7318A3009F48BC08B3051F78091D2
:10304000EA01813231F78091EE019091EF01892BF5
:1030500001F78091E800877F8093E8000E94E30AEF
:103060008091EC0180930001109221060E94C61706
:10307000D0CF8091EA01813A61F68091E800877FA4
:103080008093E8008091EE019091EF01892B61F02F
:1030900060E080E090E070E00E94560A8091E800D5
:1030A0008B778093E800B5CF68E082EF91E0F3CFB3
:1030B0008091EA01813209F0ACCF8091EE019091CC
:1030C000EF01029708F0A5CF8091E800877F8093F9
:1030D000E8008091E80082FF19C02091F300809100
:1030E000F200922F029731F48091F100813011F0BB
:1030F000863021F48091F1008093FA018091E800FC
:103100008B778093E8000E94E30A83CF8091790552
:103110008111DFCF7ECF8091EA01813A09F079CF2A
:103120008091EE019091EF01892B09F072CF80918F
:10313000E800877F8093E8008091E80080FFFCCF63
:10314000809100018093F1008091E8008E77D9CFC3
:103150008091EA01813209F05CCF8091E800877F9D
:103160008093E8000E94E30A8091ED018093E601DC
:1031700050CF8091EA01813A09F04BCF8091E8006D
:10318000877F8093E8008091E80080FFFCCF8091EA
:10319000E601D8CF803889F0823841F58091EE0180
:1031A0008F70873018F58093E9008091EB0085FBE4
:1031B000882780F91092E90006C08091EE04880FFC
:1031C0009091E701892B9091E800977F9093E80018
:1031D0008093F1001092F1008091E8008E7723C077
:1031E000811116C08091EC01813011F18091E800CD
:1031F00083FF0AC08091E800877F8093E800809178
:10320000EB0080628093EB00AA96E3E00C949D3182
:10321000823061F78091EC01811581F01092E90014
:103220008091E800877F8093E8000E94E30ADECF68
:10323000933009F080E08093EE04F0CF8091EE01AE
:103240008F702FEF280F263088F68093E9002091A9
:10325000EB0020FFE3CF933031F48091EB008062EC
:103260008093EB00DBCF9091EB0090619093EB00AB
:1032700021E030E0A90101C0440F8A95EAF74093AC
:10328000EA001092EA008091EB008860E9CF81119A
:10329000ADCF1091EC011F778091E3008078812BF6
:1032A0008093E3008091E800877F8093E8000E948C
:1032B000E30A8091E80080FFFCCF8091E300806802
:1032C0008093E30083E0111101C082E080937905CF
:1032D0008DCF8058823008F089CF2091EC01309159
:1032E000ED012C3D53E0350791F583E08A838AE2B6
:1032F00089834FB7F894DE01139620E03EE051E257
:10330000E32FF0E050935700849120FF03C0829593
:103310008F703F5F8F708A30C0F0895C8D931D92F3
:103320002F5F243169F74FBF8091E800877F80933A
:10333000E8006AE270E0CE0101960E94560A809190
:10334000E8008B778093E80051CF805DE7CF832F33
:1033500090E08330910519F160F48130910509F412
:103360006CC08230910509F041CF8BE3E9E3F1E0D5
:1033700029C02091EE013091EF018132910509F4CD
:1033800053C08232910509F031CF2130310508F464
:103390005CC009F02BCF89E4ECEAF0E013C0822F87
:1033A00090E0213099F182309105B9F1009709F050
:1033B0001DCFEEEAF1E0E4918E2FEEEAF1E0009706
:1033C00009F414CF2091E800277F2093E800209192
:1033D000F0013091F1018217930708F49C0140E05D
:1033E00021153105B1F5411134C08091E80082FD0D
:1033F000A6CF80917905811509F4A1CF853009F414
:103400009ECF8091E80083FFF0CF99CFECE9F1E007
:10341000E4918E2FECE9F1E0D2CFE6E8F1E0E4911F
:103420008E2FE6E8F1E0CBCF2130310550F009F0E6
:10343000DDCE89E0E4E6F1E0C5CF82E1E4E7F1E04A
:10344000C1CF89E0EBE4F1E0BDCF84E4E5EFF0E04B
:10345000B9CF80917905811509F471CF853009F4D0
:103460006ECF8091E80083FD6ACF8091E80082FDF5
:10347000BCCF8091E80080FFB3CF4091F3008091F2
:10348000F200942F2115310519F08830910550F084
:1034900041E0089709F040E08091E8008E77809342
:1034A000E8009ECF44914093F100319621503109BC
:1034B0000196E8CF803809F099CE8091E800877FA7
:1034C0008093E8008091E8018093F10085CE81111E
:1034D0008DCE1091EC01123008F088CE8091E8007A
:1034E000877F8093E8001093E8010E94E30A11159A
:1034F00081F084E08093790542E061EC81E00E94F4
:10350000B30A42E261EC82E00E94B30A809179053D
:103510006DCE8091E30087FDECCF81E0EBCF0E9480
:10352000F10B811529F00E943B15282F822F089559
:103530000E94160C262F972FF9CF6091CC05669527
:1035400070E04BE050E088E091E00E94E631892B8A
:1035500019F481E08093CA050E948F1A80937B053D
:1035600090937C058091CB0584608093CB05089572
:103570009091CC0590FF3DC08115E1F18D30E0F5D3
:103580008F77880F2091CC052170282B2093CC05B4
:103590008091CB0581608093CB05611581F03091DE
:1035A000CD054091CE055091CF056091D005709129
:1035B000D1058091D2059091D3050E947B10609136
:1035C000CC05669570E04BE050E088E091E00E9409
:1035D000E631892B99F00E949D0981E080937E0558
:1035E00020E04091CF056091CE058091CD050E94ED
:1035F000F710089581E0C5CF8CE0C3CF0E949D1ADB
:10360000ECCF8091CC0586958F5F8D3008F081E0FE
:1036100061E00E94B81A08958091CC05869581508A
:1036200009F48CE061E00E94B81A08958091CC05FD
:1036300080FF08C0869582588F77893018F40E94E1
:10364000011B089561E082E00E94B81A0895A0E08D
:10365000B0E0EDE2FBE10C947C318C01DC011496CE
:103660008C91811509F47CC161E0C8010E94440875
:10367000EC0180917C01811509F45FC0C032B2E594
:10368000DB0708F047C0D23508F0A6C0D035B8F542
:10369000D03408F0C6C0D03208F0CAC0C83ED10548
:1036A00048F5C03ED10508F043C0D80114968C916E
:1036B000811509F43DC0C730BEE7DB0709F4A6C099
:1036C000CE018D5C9109439708F4A0C00E94D008F8
:1036D00081112EC0F8018581811509F4B8C080914F
:1036E0007D012091D7052111A7C08111AEC00E9494
:1036F000280AABC0CE0191509F31D0F0D6CFCE0179
:1037000065E0969587956A95E1F78F7090E0209136
:103710007D0178C0C038B2E5DB07B8F5C036E2E518
:10372000DE0708F059C0C034F2E5DF0708F465C0D1
:103730008091870187FD10928701C093A101D093EA
:10374000A201D8018D919D918093A3019093A40132
:10375000FE01349713968C91E533F10508F0A0C073
:10376000EC5BF54FE49190EB811511F09E2FE0EBAF
:10377000ABEAB1E020E030E04C914E136FC023572C
:103780003E4FF901968FFE0193C0C03C22E5D2075F
:1037900078F2CE01805C9245809708F086CF209128
:1037A0007D018C2F8F7190E02817190609F0C0CF8A
:1037B000D80115968C910E94F508F8018681807FCA
:1037C000803509F0B5CF8581811529F18091870178
:1037D000815080938701ACCF20917D018C2F8F7118
:1037E00090E02817190609F0A3CFD80115968C91FF
:1037F00081119ECF0E94EA089BCF20917D018C2FE2
:103800008F7190E02817190609F092CFF801858191
:103810000E94F5088DCF0E94EA08809187018F5F92
:10382000D8CFD80116968C91803110F48D2F6DCFA2
:10383000F8018681803161CF30E0082E02C03595D5
:1038400027950A94E2F720FD52CF0E94E90F0E94CB
:103850003B1580938301909384016ACF11962F5F6B
:103860003F4F2630310509F087CFFE01E13DF105DC
:10387000F8F0682F8E2F0E94D10FF80195819115D5
:1038800009F4F2C0809121068272FE01E053FC47E8
:10389000E830F10508F0E8C0E359FD4C0C94D7314D
:1038A0009E0131503F3188F4EC2FF0E0C93DF0F239
:1038B000D80115968C91811501F3FE57E031F10581
:1038C000E0F6EB58FD4C0C94D731C93DD10568F2B8
:1038D000C7303EE7D30709F056CF0E94F209CDCF9B
:1038E00080E00E94C10D10929F0180E00E94F80FBD
:1038F0008AE892E00E94011023C030919F018091DC
:103900007E0190917F0162E370E00E945E318FEF53
:10391000860F6091A00163704091980130FB47F9D8
:103920003695337050917C01550F550F532B880FEE
:10393000880F880F582B70E08FE090E00E943F3294
:103940008091D905877061F0D80115968C91811509
:1039500039F08091200682FF03C082E00E94370A7E
:10396000CDB7DEB7E8E00C94983181E00E94D60D27
:10397000E7CF8FEFFBCF8AE0F9CF86EFF7CF8091CB
:103980009A0191E089270E94F209DACF80919F0184
:10399000811104C085E080939F01D2CF8F5F1816FC
:1039A00054F081E0F8CF80919F01811102C083E043
:1039B000F2CF8150F4CF883070F387E0ECCF81E014
:1039C0008093A001BDCF1092A001BACF82E0F8CFC2
:1039D00080917C0191E089270E94F80FB1CF8091FE
:1039E0007E0190917F01C296893EB3E09B0708F467
:1039F00081CF88EE93E07ECF80917E0190917F0110
:103A0000C2978436910508F075CF84E690E072CFB6
:103A10008115B9F08FEF0E94CF11F80185818111D6
:103A20001FC1809121068272FE01E052F847E53104
:103A3000F10508F02AC1EB57FD4C0C94D7318115E4
:103A400049F381E0E8CF1092C8050E94C811E5CF84
:103A500081E08093C805F9CF82E0FBCF83E0F9CF06
:103A600084E0F7CF85E0F5CFD7FFD7CF9115A9F246
:103A7000EC2FD03CE0F08091D80590912106892B65
:103A80009091D405892B8272FF24F394811101C097
:103A9000F12C0E942C0C86958170FE01F81631F0F5
:103AA000C7FBED2FEE1FFF0BF195E0F9EF7724E058
:103AB000E29FF0011124E758F54FC590D590E590AD
:103AC000F59031E1E316F10408F0A7CF0E2C0F2892
:103AD000A9F18091C805823009F49FCF0E946A172E
:103AE0008091C80581112CC091E0E91AF1088D2D53
:103AF0009E2DAF2DB0E0A69597958795A6959795A5
:103B00008795BC01CD0178528F4F9F4F0E94A71619
:103B1000A3E0DA22E12CF12CB601C70174528F4FD9
:103B20009F4F0E94A7168091C805823001F158F47A
:103B3000811112C082EE0E94001609C00E946A170D
:103B4000B601C701EECF8430D9F08530D9F080912D
:103B5000C6058093210661CF8CE20E942B168091CE
:103B6000C70581FFF4CF89E30E942B16F0CF82EEC8
:103B70000E9400168091C70580FDE9CF83E5F4CF50
:103B800088E2F2CF65E070E088E290E00E943317AF
:103B9000DECF8091CC0580FF1EC0282F2E7F209382
:103BA000CC053091CD054091CE055091CF05609167
:103BB000D0057091D1058091D2059091D3050E94D6
:103BC0007B100E949D098091CB0581608093CB057D
:103BD0000E947C0CB5CE81608093CC0561E0869517
:103BE0000E94B81AADCE4CE05BE161E07BE10E943F
:103BF000A509A6CE41E05BE16CE07BE1F8CF4AE8A5
:103C000051E160E871E1F3CF40E851E16AE871E128
:103C1000EECF41EA51E164E971E1E9CF44E951E1D4
:103C200061EA71E1E4CF4BEB51E16EEA71E1DFCF84
:103C30004EEA51E16BEB71E1DACF4DED50E163EC0F
:103C400070E1D5CF43EC50E16DED70E1D0CF61E094
:103C500081E0C6CF0E94161B73CE61E08CE0C0CF1E
:103C6000CA35FCE7DF0709F4ABC008F072C0C13009
:103C70003CE7D30709F4A2C0C3308CE7D80709F4A6
:103C800097C0C115DC4709F475C0F8018581E08053
:103C9000F180811509F498C0C7010E941208C82F4D
:103CA000682FC7010E949006B7018C2F0E94F3076E
:103CB0000E943507D82FC92FD8011596CD90EC90CA
:103CC000E2942FE0E2228091D9058770F1F0DC2C9C
:103CD000C114E1F0892F807F803451F080E28D0F94
:103CE000883098F0E11004C0892F807E803269F01E
:103CF0008091200682FF09C082E00E94370A8091ED
:103D0000D9058770DD24D3948111D12C8C2F829515
:103D10008F70883009F44AC108F07BC0843008F005
:103D200058C0823008F486C0EC2FEF70FE2EC07FA2
:103D3000C03219F0F29480EFF822D13008F4B4C008
:103D400009F40AC1C11409F416C1E11409F4CAC086
:103D50008AC0CB35ACE7DA07A9F1809120060024B0
:103D600082FF0394802DCC35DC4709F08ECF0E9472
:103D7000690F8BCF109221060E94C617EFEFF4E374
:103D80002CE0E150F0402040E1F700C0000087E760
:103D900097E7809300089093010888E19AE00FB6B6
:103DA000F894A895809360000FBE90936000FFCFB9
:103DB0006FEF7FEF80E090E00E944B320E94D217BD
:103DC00081E0D5CF80E0D3CFC7010E94C606C82FBF
:103DD0006BCF853009F4E5C0D114B1F08091D905DD
:103DE00080FD12C0D80115961C9286958695869501
:103DF0000E941D0AC8010E94271B8091D905869543
:103E0000869586950E94280A60E0C8010E944408B1
:103E1000A7CD893009F43AC18A5F8F708230E0F60D
:103E2000D23F09F044C18C2F8F71C1103DC10E9457
:103E30001D0AE9C0BC2FBF70FB2EC03118F0F294F0
:103E400090EFF922C114B9F0F11469F080E28D0FFE
:103E5000883010F0D11109C0809121068F298093FC
:103E600021060E9447158D2F2FC08091D8058F29DC
:103E70008093D805F6CF8D2F0E940016F11409F417
:103E8000ABCF80E28D0F883010F0D11104C08F2DA0
:103E90000E94220706C0F0948091D8058F2180935C
:103EA000D8050E94471598CF8091200682FD16C044
:103EB000C11469F0F11439F0809121068F298093A3
:103EC00021060E94471580E00E94A61585CF80E05C
:103ED0000E940016F11409F47FCFD9CFC114D1F09C
:103EE000E11004C08F2D0E949C1576CFF1E0EF12F7
:103EF00073CFC091D4058F2D8C23F81609F46CCFA5
:103F00000E943B158093DC059093DD05CF29C0937B
:103F1000D40562CFE11060CF8F2D0E94951590914E
:103F2000D4058F2D892369F08F2D80958923809367
:103F3000D40590E081110E943B158093DC0590939D
:103F4000DD058091D5059F2D982309F445CFF09488
:103F5000F822F092D50540CFC11429F026E0E216F0
:103F600008F03ACFBFCF35E0E31608F035CF8F2DFC
:103F70000E94951531CFE114D1F3D93369F48FEF55
:103F800097EEA3E081509040A040E1F700C0000010
:103F90008D2F0E94001620CFEFE1FEE43197F1F75C
:103FA000F5CF6C2D8D2F0E94D10F16CF8C2F8370E3
:103FB000A9F5C11028C08D2F829586958770880F2E
:103FC000880F4D2F4F70082E01C0440F0A94EAF756
:103FD0002D2F2071D4FF06C02FE001C0220F8A953B
:103FE000EAF72095C695C695C370C23091F0822F2E
:103FF000842BC33031F08091D605C13039F0242BA9
:1040000082230E948D060E942C0CE6CE842B822BEC
:10401000F8CF242B8091D6058227F3CFC11459F114
:10402000C0FFF1CF8D2F829586958770880F880FFE
:104030004D2F4F70082E01C0440F0A94EAF72D2F20
:104040002071D4FF06C02FE001C0220F8A95EAF745
:104050002095C695C695C370C23099F0822F842BE7
:10406000C33031F08091D705C13041F0242B822339
:104070000E94060AC8CF823030F2D4CF842B822B24
:10408000F7CF242B8091D7058227F2CFCF70C114B0
:1040900039F08C2F0E941D0A8D2F0E949C15B3CFE2
:1040A0008D2F0E9495158C2F0E94280AACCF70F49A
:1040B000D03FC9F0D13F91F0C11409F45BC0E114C5
:1040C00009F455C08D2F0E94A6159DCFD33FE9F06E
:1040D000D43F91F78091200682FD22C08C2F8F71F2
:1040E000C11411F3A4CEC11469F0F5E0EF1608F085
:1040F0008ACFCF7181E090E09C0101C0220FCA9568
:10410000EAF7C0CF36E0E316F2CF80E0C11409F43D
:10411000AFCFCF7181E001C0880FCA95EAF7A8CF71
:10412000C114D9F0CF718C2F0E941D0A80912006F6
:1041300082FF11C08C2F880F880F880F83608093B7
:10414000D9058C2F0E941D0A0E943B158093DA0529
:104150009093DB0558CF8C2F6ACE81E00E94370AFE
:1041600082E0E81608F44FCF0E94370A4CCF8C2F1C
:104170008F715DCEE114A1F0D93369F49FEFA7EE02
:10418000B3E09150A040B040E1F700C000008D2F97
:104190000E94001638CFEFE1FEE43197F1F7F5CF3A
:1041A0008C2F8F7181CF80911E06803170F48091A9
:1041B0001D06811551F0E091DF052091DE0530915B
:1041C0001906409118062E1301C008956E2F70E055
:1041D00087E0E89FF0011124DF01A052BA4F149646
:1041E0008C911497811561F111968C91119783131D
:1041F00027C08C91841324C015968C91159781113A
:104200001FC012968D919D91A0911A06B0911B0628
:104210008A1B9B0B883C910598F480911E068F7039
:10422000806180931E06EA51FA4F80818F70806111
:10423000808388E196E00E94271B0E94180708955A
:10424000FB01E395E770BFCFADE0B0E0EAE2F1E259
:104250000C9477318C0186E0F801DE01189601900C
:104260000D928A95E1F7F801F580C48088E1882EE7
:1042700086E0982E70901C06711020C0C114D9F0F1
:10428000F11409F41CC1C8010E948008811509F4C9
:1042900016C187E0F801D40101900D928A95E1F7EB
:1042A000F1E0CF1206C080911806909119060E9485
:1042B0006C080E94D320FF24F39454C0E080A280B5
:1042C000B380D0901D0680911A0690911B0695012F
:1042D000281B390BD11409F4BAC0283C310508F069
:1042E00090C0C11441F390911906C18080911E06BF
:1042F000803108F058C0C91214C0909118069E1160
:1043000010C0F1104AC08F70806180931E0688E152
:1043100096E00E94271B80911E06F8018683F12CEF
:1043200021C0F1103AC040E06C2D8E2D0E94F9069C
:1043300040E06C2D8E2D0E94F906F82E8111EFCFF2
:10434000888599850E946C08292F22952F709034BA
:1043500070F49F702230A0F09115B1F0F8019681B1
:10436000903190F48F2D2D96EDE00C9493312A5FCF
:104370002F70223068F0C8010E94271BFD2CF2CF5D
:10438000911511F0811571F3805E883058F3F3CFE9
:10439000803F40F3815F8330F9CF80911E068160BA
:1043A00080931E06BCCFC91207C0909118069E11BB
:1043B00003C0F11409F46CC0C8010E948008811583
:1043C00009F47DC0F11409F47AC080911E06803290
:1043D00078F0209118063091190629833A83AB8230
:1043E000BC827D821E828F83CE0101960E94271B94
:1043F00087E0F801A8E1B6E001900D928A95E1F717
:1044000058CF80911E06803150F488E196E00E94DA
:10441000271B87E0F40111928A95E9F780CFC11438
:1044200009F449CF2091190691812913C5CF9091A4
:1044300018069E11C1CFF110BFCF8683C8010E941C
:10444000271B87E0F40111928A95E9F734CF283CC5
:104450003105F8F6C11409F42ECFF11481F19091D1
:1044600019068181981321C0809118068E111DC0F4
:1044700080911E0680FD10C0803170F08683807FA1
:10448000803F39F08681982F907F905F8F70892BC5
:104490008683C8010E94271B87E0F801A8E1B6E0E7
:1044A00001900D928A95E1F706CFC8010E9480081D
:1044B00081119ECF80911E06816080931E06C801E7
:1044C0000E94271BF8CEABE1B0E0E9E6F2E20C94E3
:1044D00080314E8B5F8B688F798F8A8F192F9B8FDE
:1044E00091111092D8051D8A86E0FE017696DE01B4
:1044F0001F9601900D928A95E1F70A8D8091200612
:1045000082FF1FC00E943B152091DA053091DB0528
:10451000821B930B883B9B4038F08091D90582FD2C
:1045200003C082E00E94370A0E943B152091DC05FF
:104530003091DD05821B930B883B9B4010F00E945D
:104540002A07011539F00B8B1C8B61E0CE010F9609
:104550000E9444080B8B1C8B87E0FE013F96DE0116
:10456000189601900D928A95E1F7CE0108960E9467
:104570002421811127C02091DE053091DF0587E0DD
:10458000FE013896DE01119601900D928A95E1F7B1
:104590008C858115B9F0822F90E08395877090E02B
:1045A00038171906C9F4109221060E94C6171092F6
:1045B000DE051092DF0587E0E8E1F6E0DF011D92FD
:1045C0008A95E9F78091DF059091DE05891315C082
:1045D0006B96E4E00C949C3197E0929FD0011124FB
:1045E000A052BA4FFE01319601900D929A95E1F7D3
:1045F0008093DE050E941807E5CFB7E08B9FC001CE
:10460000112480529A4F0E942421811509F3209190
:10461000DF052F5F3F4FC90187708093DF05D2CF41
:10462000A6E0B0E0E6E1F3E20C9480310E943B1595
:104630008C018091A2059091A3058017910779F0D4
:1046400019821A820E943B15BC0149815A8180E07F
:1046500090E00E9463220093A2051093A305269682
:10466000E4E00C949C319C014FB7F89480911C05B8
:1046700090911D05A0911E05B0911F054FBF821B93
:10468000930B0895A4E1B0E0E8E4F3E20C947A31EE
:10469000FE013C9688E0DF011D928A95E9F782EDE4
:1046A000E82E81E0F82E8F0196EDA92E91E0B92E2B
:1046B000EC8BC12EF70181917F018F3F09F43FC040
:1046C000F894E82FE295EF70F0E021A18F7041E0BF
:1046D00001C0440F8A95EAF7842F922F942B91A35F
:1046E00092A18095892382A3789400C0E6EDF1E041
:1046F00031E0D12C21912F3F79F0A22FA295AF70FC
:10470000A05EB0E08C9190E02F7002C095958795E7
:104710002A95E2F780FF2AC080E0D82A330F8CED7B
:1047200091E08E179F0731F7F70182918F3F11F0CB
:104730000E94AE0890EA9A95F1F7D801DC920F5FDB
:104740001F4FAE14BF0409F0B5CF48E050E06C89AC
:104750007C2D86E995E00E94F331892B49F4809104
:104760008C058115B9F10091950516C0832FD5CF21
:1047700088E0EC89FC2DA6E9B5E001900D928A95C0
:10478000E1F70091950581E080938C050E943B152F
:1047900080938A0590938B0580918A0590918B0573
:1047A0000E9433230597B0F010E003571A4F44E0FE
:1047B00050E066E975E0C8010E94F331892B41F0B1
:1047C00084E0E6E9F5E0D80101900D928A95E1F7E1
:1047D00010928C050E94F10B0091950510E0035793
:1047E0001A4F7E01BFEFEB1AFB0A811509F476C060
:1047F00084E0F70111928A95E9F7809185058A3066
:10480000C0F543EF52E1B701C8010E943D0C81158C
:1048100009F452C048E252E1B701C8010E943D0CC0
:10482000811509F449C049EA52E1B701C8010E9463
:104830003D0C811509F440C045ED52E1B701C801B6
:104840000E943D0C8115C1F110928505809189056A
:1048500090E044E050E0B70183579A4F0E94F33153
:1048600021E020938805892BC9F46496EAE00C9432
:10487000963180918605909187050E943323843F6D
:10488000914008F0BECF80918805811571F384E0D6
:10489000D7011D928A95E9F710928805E091890564
:1048A000F0E0E357FA4F89819A81AB81BC81808324
:1048B0009183A283B383D9CF809185058F3F39F44B
:1048C0000E943B158093860590938705DCCF8F5F10
:1048D000809385058A3008F4B9CFF2CFF801808142
:1048E0009181A281B3818093210590932205A093A9
:1048F0002305B093240564E070E081E295E00E9416
:10490000AB0980932005A0902505B0902605C090A6
:104910002705D09028058091810590918205A0916E
:104920008305B0918405A816B906CA06DB06F1F026
:10493000A0928105B0928205C0928305D092840531
:104940000E94F10B811112C00E94E6099501A60197
:10495000261B370B480B590BC901DA0180939E05C2
:1049600090939F05A093A005B093A1058BE0E9E289
:10497000F5E0D70101900D928A95E1F7F0902A05B4
:10498000E0902B05D0902C05009132051091330555
:1049900010923305111509F110FF0CC08981909117
:1049A000CC0580FF21C091609093CC0560E0869596
:1049B0000E94B81A11FF06C020E04D2D6E2D8F2DDC
:1049C0000E94F71012FF04C00115D9F00E949D1A31
:1049D00013FF03C081E080937E058091340581152B
:1049E00099F00E94071441CF9E7F9093CC050E94BE
:1049F0009D098091CB0581608093CB050E947C0C42
:104A0000D9CF0E949D09E4CF0E942B142ECFAEE196
:104A1000B0E0EDE0F5E20C947D314091C00550919D
:104A2000C1056091C2057091C3058091C405909144
:104A3000C5050E94EC0D2093C0053093C10540933D
:104A4000C2055093C3056093C4057093C50586E005
:104A5000E0ECF5E0DE01179601900D928A95E1F702
:104A600086E0FE013796DE011D9601900D928A9533
:104A7000E1F786E0FE013D96DE01119601900D9270
:104A80008A95E1F786E0FE013196A0ECB5E0019051
:104A90000D928A95E1F786E0E0ECF5E0DE015996AB
:104AA00001900D928A95E1F786E0FE017996DE018C
:104AB000179601900D928A95E1F786E0FE013796F0
:104AC000DE01119601900D928A95E1F786E0FE01D4
:104AD0003196DE01539601900D928A95E1F786E0BA
:104AE000FE017396DE01179601900D928A95E1F70B
:104AF00086E0FE013796A0ECB5E001900D928A9514
:104B0000E1F780917C01811509F44BC01091C1053A
:104B1000D090C205E090C305F090C4050091C50592
:104B200080918101909182010E9433232091800124
:104B300028171906B0F580918301909184010E9495
:104B40003323893C910568F1ED28FE280F29102BAD
:104B500081E0111101C080E0809385010E94D0089E
:104B60001091D705811549F10E943B158093810171
:104B700090938201109283011092840180917D01B3
:104B8000111105C0811569F00E941D0A0AC0212F6C
:104B900030E0082E02C0359527950A94E2F720FFF1
:104BA000F3CF0E94800F811102C08091D802109231
:104BB000D8026E96E7E00C94993180917D01111135
:104BC00018C08111EECF80918101909182010E94E5
:104BD000332320917E0130917F012817390708F790
:104BE00080917D010E94280A109281011092820119
:104BF000D8CF212F30E002C0359527958A95E2F76E
:104C000020FFCFCFE0CF6F927F928F929F92BF9283
:104C1000CF92DF92EF92FF920F931F93CF93DF9388
:104C200000D000D0CDB7DEB78091E504811509F43E
:104C3000C2C180911B0290911C020E943323C29733
:104C400008F4D8C00E943B1580931B0290931C026D
:104C500084EE92E08093E2029093E3020E94F10BD3
:104C6000811509F4C5C18BE692E00E94EE1488EB31
:104C70000E943D148091A4010E940E060E943D14E2
:104C800089EB0E943D148091A3010E940E060E94B0
:104C90003D1488E692E00E94EE148091A10190916B
:104CA000A20154E0969587955A95E1F70E940E0669
:104CB0000E943D148091A1010E940E060E943D14A5
:104CC00085E692E00E94EE148BEA91E00E94FC14CB
:104CD0008AE892E00E94EE148091A7010E94EB0501
:104CE0000E94FC148091A8010E94EB050E94FC1414
:104CF0008091AA010E94EB050E94FC148091A901F9
:104D00000E94EB050E94FC1482E892E00E94EE14DF
:104D100080919801811101C085E00E94EB05019608
:104D20000E94FC148EE792E00E94EE148091A00194
:104D3000813028F009F451C185E792E002C08BE789
:104D400092E00E94EE1480919A01811509F448C105
:104D500083E992E00E94EE1481E792E00E94EE1453
:104D600080919F01811101C084E0805D0E943D140B
:104D700089E992E00E94EE1421E029831A82809151
:104D8000D705811509F42FC190E0098002C09595DF
:104D900087950A94E2F780FF26C189810E940E065A
:104DA0000E943D1489819A81019689839A8308978C
:104DB00031F780E20E943D1486E992E00E94EE14F1
:104DC00080917C01811509F410C183E992E00E9471
:104DD000EE1480917E0190917F016AE070E00E9464
:104DE0005E31862F0E94EB0501960E94FC1480E341
:104DF0000E943D148091E0029091E102892B09F418
:104E0000C1C08091E504811509F4BCC08091E4041F
:104E10008111B8C00E9407148091E0029091E102D4
:104E2000009709F4AFC080FB662460F8712C10E095
:104E300080FD0FC041E050E01F5F3A01012E02C02B
:104E4000660C771C0A94E2F7930128233923232B5D
:104E500099F38091EB0480FFE5C0912F990F990F92
:104E6000990F37E0390F80E023E09093030180939E
:104E70000601309304012093070124E630E047E067
:104E800050E061E071E088E70E942A2F892B09F049
:104E900079C080E2189FA00111248091EB0480FF6B
:104EA000D2C0EBEFF1E080E2DF011D928A95E9F7D5
:104EB00037EB832E31E0932E03EB11E0D4018D917B
:104EC0004D01F80161918F01640F752F711DE82F5D
:104ED000F0E0E550FE4F80E090E027E0B22EB81AF7
:104EE000CC24C394082E01C0CC0C0A94EAF7DB0151
:104EF000AC51BD4FA983BA83E12CA981BA81FD9041
:104F0000A983BA83FC202B2D2E19277030E0BF2DEA
:104F1000022E01C0BB0F0A94EAF7DB2E31952195D2
:104F20003109277001C0F6942A95EAF7DF2820811D
:104F3000D22AD082E39428E0E212DFCF01963196A4
:104F40008830910551F62BEB31E02815390509F031
:104F5000B5CF04E610E020E230E04BEF51E060E432
:104F600088E70E94582F892B69F4F301E095F095AA
:104F70008091E0029091E102E823F923E093E002BE
:104F8000F093E102809107058115A9F00E94E609DE
:104F90000091E6041091E7042091E8043091E904BF
:104FA000601B710B820B930B6F3F7F4F8F4F9F479F
:104FB00010F40E942B140F900F900F900F90DF9120
:104FC000CF911F910F91FF90EF90DF90CF90BF9006
:104FD0009F908F907F906F90089588E792E0B1CE78
:104FE00080E992E0B7CE80EBDBCE80E992E0EFCEB5
:104FF00090E8998382E692E00E94EE14A981A05F76
:10500000AB838981B82FBF5FB9830E943D14E981CA
:10501000FB81EF13F6CF80E00E94C0142981203B72
:1050200049F7E8CE30E2139FC0011124880F892F81
:10503000881F990B9195282F912F9295990F907613
:105040003FE1390F12CF4C515D4F04E610E020E2F2
:1050500030E085CFCDB7DEB72B970FB6F894DEBF23
:105060000FBECDBF85B7806885BF85B7806885BF17
:1050700084B7877F84BF0FB6F894A89580916000AD
:10508000886180936000109260000FBE80E890E01D
:105090000FB6F89480936100909361000FBE8CEA84
:1050A00098E08093DC019093DD010E948C0B0E94BC
:1050B000330B8091E20084608093E20078948091C9
:1050C0007905811599F08091E9001091EC008F70BD
:1050D00010FB112717F9182B1092E9008091E800B6
:1050E00083FD0E94EA171F701093E90082E084BDDF
:1050F00093E095BD9AEF97BD80936E0010929E0548
:1051000010929F051092A0051092A1050E94B20B6B
:105110008093130180911301811121C28EE180934C
:1051200088018EE1809389010E94F10B81110E9418
:10513000EA2F809113018091130191E08927880F54
:10514000880F8093950594E0981B9093890502ED54
:1051500011E066EDE62E61E0F62ED8018D918D010D
:105160008F3F11F00E94AE08E016F106B1F706ED90
:1051700011E05CEDE52E51E0F52EF80181918F01F3
:105180008F3F11F00E94AE08E016F106B1F788E0FB
:10519000EDE8F5E0DF01C82E1D92CA94E9F7E6E9D3
:1051A000F5E0DF011D928A95E9F780E090E00E942A
:1051B0001732863E9E4F11F00E940F1082E090E061
:1051C0000E9409328093EF0484E090E00E9417323D
:1051D00080931F069093200683E090E00E9409329E
:1051E0000E948D068091D7050E947B06982F81E052
:1051F000963009F080E00E94F2098CE090E00E9475
:1052000009328093C8051092DF02843009F0A9C1E9
:105210000E94F10B91E08927880F8093EB0480E8CE
:105220008093EA040E947E2E6BE070E087E997E0AD
:105230000E94D313811509F43FC08091EB0465E00F
:1052400070E081FD92C182E997E00E94D31381153D
:1052500099F16DE070E080E897E00E94D31381152A
:1052600059F10E94E609DC01CB01805A9541AF4F0C
:10527000BF4F8093E6049093E704A093E804B093B3
:10528000E904E4EEF2E080E092E0DF019C011D928F
:1052900021503040E1F7E093E202F093E3028FEF18
:1052A0009FEF8093E0029093E10281E08093E50418
:1052B000809307051092E4048091EC04811160C092
:1052C00080E090E00E941732863E9E4F21F00E94BF
:1052D0000F100E94A91088E090E00E9411326B012B
:1052E0007C0184E290E00E9409321F829701EC2D3C
:1052F000FF80FD28C092CC05F092CD052093CE050D
:105300003093CF058093D0051092D1051092D2052D
:105310001092D3058091CB0583608093CB05E2305A
:1053200000F50E94A91088E090E00E9411326B0104
:105330007C0184E290E00E9409321F829701FF8085
:10534000FC28F092CC05D092CD052093CE05309369
:10535000CF058093D0051092D1051092D2051092FE
:10536000D3050E9488090E949D098091CC0580FF89
:1053700004C060E086950E94B81A81E08093EC0436
:105380000E94F10B811102C00E94ED2F0E94210F9B
:105390000E94F10B81112CC08AEE9BE080936A0180
:1053A00090936B0129E1209365011092660189E3D6
:1053B000809368011092690145E656E040937201BE
:1053C0005093730120936D0110926E0180937001D0
:1053D0001092710147EE5DE040937A0150937B019A
:1053E00020937501109276018093780110927901D3
:1053F00080E090E00E941732863E9E4F69F58FE074
:1054000090E00E941132F62E172F082F862F8F77EB
:105410000E94C10D912F9370990FF7FC91609093AA
:105420009F0112FB882780F90E94F80F8AE892E01A
:10543000183068F0212F26952695269530E02F5FAD
:105440003F4F42E3429FC001439F900D11240E94B1
:10545000011003700093A0010E94C40B84E08093AC
:10546000C8050E94C81184E191E08093A40590933F
:10547000A50580917905853059F4809179058530AD
:1054800009F476C0109221060E94C6170E942C0CC7
:105490000E94422300EF14E0EDE8F5E0E987FA8787
:1054A00028EC31E02F833887B901DF019801F90139
:1054B00091919F018C91FB014081842348EFC42E80
:1054C00044E0D42EC216D30609F4AFC011966F5F24
:1054D0007F4F981761F30E94F10B8B87E12CA98510
:1054E000BA85FD90A987BA87EF81F8858191EF830E
:1054F000F887F822D801BD908D01BF1431F1BF2487
:10550000CC24C394D12C8C2D8B21C1F0BB85B1153B
:10551000A9F0D982EA820E943B158B839C83E1E04B
:10552000ED8391E08C2D8F2109F490E09E834981D9
:105530005A816B817C818D810E946322D394CC0C33
:10554000F6E0DF12E0CFF801F292E39428E0C22EF9
:10555000EC10C5CF0E94160CBB24B3946BC080E046
:10556000DECD84E08093C80553CE8DE897E06DCE04
:1055700080917905843041F10E942B140E94072507
:105580001092ED0488E190E0A0E40FB6F894A8959D
:10559000809360000FBEA093600083B7817F84601A
:1055A00083BF83B7816083BF7894889583B78E7FEC
:1055B00083BF0FB6F894A8958091600088618093AE
:1055C0006000109260000FBE8091EE04811509F416
:1055D00054CF0E944223EDE8F5E0A8ECB1E025E9C4
:1055E00035E080819C91892331F4319611962E17F4
:1055F0003F07B9F742CF80E189BD82E189BD09B497
:1056000000FEFDCF8091D8008F7D8093D8008091DF
:10561000E00082608093E0008091E00081FDFCCF9B
:10562000109221060E94C61728CF981354CF0E94CB
:105630001023B12C0E94F10B8091CA05811509F449
:1056400067C09091C9058091CC058695891B809390
:105650007D0500ED17E08FECE82E88E0F82E9C30F9
:1056600041F4E2EAF7E0059115919AEEE92E9CE00B
:10567000F92E80917E05811561F010927E050E94C1
:105680008F1A80937B0590937C0510927F05109272
:1056900080050E948F1A20917B0530917C05AC011A
:1056A000421B530B4F3F5F4798F54091FA04411559
:1056B000B1F01092FA044091F8045091F904841B5F
:1056C000950B8F3F9F4758F4405D5A484093F8042C
:1056D0005093F9048091CB0588608093CB05C090EE
:1056E0007F05D0908005200F311F20937B053093DC
:1056F0007C058BE795E0F701099580917F059091F6
:105700008005892B29F4CD2819F081E08093FA04D3
:105710000E940725811539F00E94160C0E9403266D
:105720000E94071404C00E940326B110F9CF0E9402
:105730002C0C9091FB04891721F08093FB040E94AC
:10574000E6090E94F10B811509F493CE0E94E60947
:1057500020910205211146C00091FE041091FF0422
:1057600020910005309101056B017C01C01AD10A1E
:10577000E20AF30A86019701043F11402105310531
:1057800088F16093FE047093FF048093000590936A
:1057900001058091FC049091FD0401968093FC0426
:1057A0009093FD0419828E010F5F1F4F21E040E0AE
:1057B00050E060E089E00E947F13811106C0809173
:1057C000FC049091FD040A976CF081E0809302053F
:1057D00080938E019981911101C080E080938F01A7
:1057E0000E94C40B80918F01811509F442CE0E9462
:1057F000E6096B017C018091030590910405A0915D
:105800000505B09106059601A701281B390B4A0B27
:105810005B0BC901DA010497A105B10580F119827A
:105820001A821B821C828E010F5F1F4F24E040E012
:1058300050E060E08AE00E947F138115C1F0698129
:105840007A8180919401909195010E94D605809370
:105850009401909395016B817C8180919601909148
:1058600097010E94D6058093960190939701C0926C
:105870000305D0920405E0920505F092060580919B
:105880009901811509F4F5CD80919801898300E093
:1058900010E020E0AE014F5F5F4F61E08BE00E94BF
:1058A0007F13811509F4E5CD10929901E2CD78942A
:1058B0001F921FB61F9211248F939F93AF93BF9394
:1058C00080911C0590911D05A0911E05B0911F05AA
:1058D0000196A11DB11D80931C0590931D05A093F9
:1058E0001E05B0931F05BF91AF919F918F911F909F
:1058F0001FBE1F9018951F920F920FB60F92112482
:105900002F933F934F935F936F937F938F939F93C7
:10591000AF93BF93EF93FF938091E10082FF09C0A3
:105920008091E20082FF05C08091E1008B7F80932F
:10593000E1008091DA0080FF24C08091D80080FFD0
:1059400020C08091DA008E7F8093DA008091D900A8
:1059500080FF9BC080E189BD82E189BD09B400FE62
:10596000FDCF81E0809379058091E901811109C023
:105970000E948C0B0E94330B8091E2008460809324
:10598000E2008091E10080FF17C08091E20080FF7B
:1059900013C08091E2008E7F8093E2008091E2004C
:1059A00080618093E2008091D80080628093D8006B
:1059B00019BC85E0809379058091E10084FF29C0BE
:1059C0008091E20084FF25C080E189BD82E189BD2C
:1059D00009B400FEFDCF8091D8008F7D8093D80060
:1059E0008091E1008F7E8093E1008091E2008F7EC4
:1059F0008093E2008091E20081608093E2008091D8
:105A0000E801811509F447C084E08093790580910D
:105A100079058091E10083FF27C08091E20083FF38
:105A200023C08091E100877F8093E10082E0809332
:105A300079051092E8018091E1008E7F8093E1006A
:105A40008091E2008E7F8093E2008091E20080618D
:105A50008093E20042E060E080E00E94B30A80911F
:105A6000F00088608093F000FF91EF91BF91AF91BB
:105A70009F918F917F916F915F914F913F912F9166
:105A80000F900FBE0F901F90189519BC10927905BA
:105A90001092E90176CF8091E30087FF02C083E096
:105AA000B4CF81E0B2CF1F920F920FB60F921124A4
:105AB000EF92FF920F931F932F933F934F935F9318
:105AC0006F937F938F939F93AF93BF93CF93EF93F6
:105AD000FF9309EE10E0F8018081C091EC008F7017
