:100000000C94B5050C94D2050C94D2050C94873051
:100010000C94D2050C94D2050C94D2050C94D20504
:100020000C94D2050C94D2050C9420150C94CD1E82
:100030000C94BA290C94D2050C94D2050C94D205D8
:100040000C94D2050C94D2050C94D2050C94D205D4
:100050000C94D2050C94F9150C94D2050C94D2058D
:100060000C94D2050C94D2050C94D2050C94D205B4
:100070000C94D2050C94D2050C94D2050C94D205A4
:100080000C94D2050C94D2050C94D2050C94D20594
:100090000C94D2050C94D2050C94D2050C94D20584
:1000A0000C94D2050C94D2050C94D2056162636461
:1000B00065666768696A6B6C6D6E6F707172737478
:1000C00075767778797A3132333435363738393056
:1000D000524542545F2D3D5B5D5C233B27602C2ED7
:1000E0002FB1030000B2030000B3030000B403000B
:1000F00000B5030000B6030000B7030000B803001A
:1001000000B9030000BA030000BB030000BC0300F9
:1001100000BD030000BE030000BF030000C00300D9
:1001200000C1030000C3030000C4030000C50300B6
:1001300000C6030000C7030000C8030000C9030095
:1001400000E0000000E1000000E8000000E900001D
:1001500000EC000000F2000000F9000000B1000017
:1001600000D7000000F700000060220000482200D5
:100170000064220000652200001E220000B0000082
:1001800000002200000322000008220000112200CB
:10019000002B2200001A2200000222000007220089
:1001A000008222000029220000052200002A2200ED
:1001B000009522000092210000902100009421006F
:1001C00000D2210000D4210000A52200002022003E
:1001D00000290014001A000821150017002B000444
:1001E000211624074209410A46D3001D281B230675
:1001F0000019000500000088009100D200D1002CF9
:10020000222A00130012000C3118001C00340033A5
:10021000310F240E420D410B468700382837003637
:10022000001000110000004C0000000000E1002858
:1002300000A8001E001F0020002100220082022BC7
:100240000050042B012B034F14AA00DB005008526E
:10025000085108E30100000100DA0029002A004CDF
:10026000002E002700260025002400230045002D35
:10027000004F00520051005000010001004F04AE39
:100280000080005004000001000000000000000099
:100290000001001E021F0220022102220201002F83
:1002A000002E00890290009100010000000000492A
:1002B0000149020000000027003700835284528564
:1002C0005201002E0226022502240223021F022DC3
:1002D00002310230022F0200008902380231003060
:1002E000000000000000000100000000004F095065
:1002F00009010001000480108012801380010000B9
:100300008011800380148002800100058015801612
:100310008017800180000001000100010001000140
:1003200000010017800F800E800880078001000107
:10033000000A8009800D8006800100010001000193
:10034000000B800C80000001000000000001000193
:10035000000100010001001B8001000100010018E4
:1003600080010001001A800100010001000100016C
:100370000001000100000001000100010001000176
:1003800000010019801D801C801E800100010001F9
:100390000001000100010001000100010001000155
:1003A0000001000100000001000000000001000148
:1003B0000001001F802080218022802380010028EE
:1003C0008029802A802B802C800100328033803469
:1003D000803580368000000100010001000100012D
:1003E00000010027800F80268025802480010031B5
:1003F0008030802F802E802D8001003B803A803914
:1004000080388037800000010000000000010001FA
:100410000020783A003B003C003D003E002178235C
:1004200078257827780100087E2278247826782895
:1004300078087E097E0000007C007E01000100013A
:1004400000440043004200410040003F0001000121
:10045000003478337832783178017E0100047E02EE
:100460007E037E057E0000007C000000000100018C
:100470000000DA0281FFD9F1DB20A4A62EAF00A094
:10048000C0D30000A1C8D30000AED580A81F408D06
:100490001420000004000101010101010101010219
:1004A0000202020202020202030303030303030324
:1004B00004040404040404050505050506060606EF
:1004C00006070707070708080808090909090A0AAB
:1004D0000A0B0B0B0C0C0C0D0D0D0E0E0E0F0F0F4F
:1004E00010101111111212131314141515161617DA
:1004F00017181819191A1A1B1B1C1D1D1E1E1F2048
:1005000020212222232424252626272829292A2B94
:100510002C2D2D2E2F3031323233343536373839B9
:100520003A3B3C3D3E3F40414243444546474849B3
:100530004A4C4D4E4F50515354555658595A5B5D85
:100540005E5F616264656668696B6C6D6F70727323
:100550007577787A7B7D7E8082838587888A8C8E8A
:100560008F91939596989A9C9EA0A2A3A5A7A9ABBC
:10057000ADAFB1B3B5B7BABCBEC0C2C4C6C9CBCDAE
:10058000CFD1D4D6D8DBDDDFE2E4E7E9EBEEF0F360
:10059000F5F8FAFDFFFFAA7F554000AF00AE20201E
:1005A00000BABB004B657920B10020C0C100BEBFBE
:1005B00000484F005654003030200020202020B149
:1005C000BCBD0042616C6CB100B4B500B2B300C2F6
:1005D000C3004CB6B772B10020200000000000003C
:1005E000000000000000000000000000000000000B
:1005F0000000000000000000000000000000007E7D
:100600000F00D4FFFFFFC7000000780000000000CB
:100610000000002A2B28000000000000000000005D
:1006200000000000000029000000002C1E342021E2
:100630002224342627252E362D3738271E1F202129
:1006400022232425263333362E37381F0405060788
:1006500008090A0B0C0D0E0F1011121314151617A2
:1006600018191A1B1C1D2F3130232D3504050607C0
:1006700008090A0B0C0D0E0F101112131415161782
:1006800018191A1B1C1D2F3130354C05010902A108
:100690000185020901A10005091901290815002594
:1006A000019508750181020501093009311581257F
:1006B0007F95027508810609381581257F9501759A
:1006C000088106050C0A38021581257F95017508F9
:1006D0008106C0C005010906A101050719E029E747
:1006E00015002501950875018102950175088101A4
:1006F0000507190029FF150026FF009506750881DA
:1007000000050819012905150025019505750191B8
:1007100002950175039101C009023B00020100A08E
:10072000FA0904000001030101000921110100017F
:1007300022440007058103080001090401000103A8
:100740000000000921110100012249000705820370
:1007500020000112010002000000085759000400A7
:10076000010102000114034B006500790062006181
:10077000006C006C00340034000000100359006F5E
:100780000077006B0065006500730000000403093A
:100790000400000000000000002F0000000007001F
:1007A000070000123F123F1200242A7F2A1200364F
:1007B000091E241B0018262912280000000700002B
:1007C00000001E214000000040211E000014083ED1
:1007D00008140008083E08080000003070000008F7
:1007E000080808080000003030000020100C02014A
:1007F000001E2925231E0000223F2000002231294F
:10080000292600122125251A001814123F1000175E
:1008100025252518001E2525251800013109050369
:10082000001A2525251A00062929291E0000003353
:100830003300000000337300000814142222001457
:1008400014141414002222141408000201290502B1
:10085000003E59555D3E003816111638003F2525DB
:10086000251A001E21212112003F2121211E003FB7
:1008700025252521003F09090901001E2121291AEA
:10088000003F0404043F0000213F2100001020200D
:10089000201F003F040C1221003F20202020003F99
:1008A0000204023F003F020C103F001E2121211EC6
:1008B000003F09090906001E2129112E003F0909E0
:1008C00019260012252529120001013F0101001FF0
:1008D0002020201F000718201807000F300C300FB1
:1008E0000021120C122100030438040300312925D1
:1008F000232100007F4141000001020C1020000074
:1009000041417F0000040201020400404040404099
:1009100000000103040000102A2A2A3C003F242280
:10092000221C001C22222224001C2222243F001C04
:100930002A2A2A0C0000043E0505000C5252543E9F
:10094000003F080404380000003D00000020404043
:100950003D00003F080814220000013F2000003E37
:10096000023C023C003E0402023C001C2222221CEB
:10097000007E1422221C001C2222147E003E04024F
:10098000020400242A2A2A120000021F2200001E4C
:100990002020103E000618201806000E300C300EE5
:1009A000002214081422000E5050483E0022322A21
:1009B00026220008087741410000007F0000004126
:1009C0004177080800180408100C0000000000001F
:1009D00000000000000000000000000000C0F0F86F
:1009E0008C86C6E7FFFFFFFFFFFFFEFCFCF8E08000
:1009F000000000F0F0F00000C0E0F07070000000B7
:100A000000000000000000000000000000000000E6
:100A1000000000F8F8F800000000000000000000EE
:100A2000000000000000000000F8F8F80000F8F8EE
:100A3000F8000000000080E07078686C64C7C7C7E9
:100A4000C7C7C7E73F1F0F3FFFFFFFFFFFFF3F0F76
:100A5000000000FFFFFF1E3FFFF3E1800000F8FCF5
:100A6000FE3636363EBCB8000E3EFEF080F0FE3E4E
:100A70000E0000FFFFFF060606FEFEFC7000E6F615
:100A8000F63636FEFEFC000000FFFFFF0000FFFF11
:100A9000FF000000003C7F6360E0C0C0C0C0C0C079
:100AA000C0C0FFFFC06030180F0303030100000047
:100AB000000000030303000000030303030001031D
:100AC00003030303030301007070393F1F07010094
:100AD00000000001030303030303030100000103FB
:100AE00003030303030100000003030300000303E7
:100AF000030010101000000000550000003E635D70
:100B00005D637F417B77413E00001C22221C003E3A
:100B10000A003E0A00322A3C0026281E001C2A2C0D
:100B20000000003F09360000001E212100000000E7
:100B3000003F0837001E2121001E2121003F090629
:100B400000213F2100222519001E2121003F0936E6
:100B5000003F211E00213F21000F300F003E093EC3
:100B6000003F063F003F2020000011241FBECFEFB2
:100B7000DAE0DEBFCDBF11E0A0E0B1E0E2E4F6E6EE
:100B800002C005900D92AC3DB107D9F726E0ACED5F
:100B9000B1E001C01D92AE32B207E1F70E94E12937
:100BA0000C94DC320C940000482F20911804909192
:100BB000DF0357E0291302C080E0089530E0529F20
:100BC000F001539FF00D1124E052FC4F8181681316
:100BD00006C08081481303C085818111EECF2F5F4D
:100BE0003F4F2770E7CFE8EDF0E080818E7F808374
:100BF0001092E2001092DA001092E100A0EEB0E054
:100C00008C9181608C9380818F77808319BCA7ED54
:100C1000B0E08C918E7F8C9380818F7E8083109248
:100C2000C70308952091E4003091E50095E6A901FD
:100C30002091EC00822F817020FF06C08091E80097
:100C400080FF06C080E008952091E80022FD1AC0D0
:100C50008091D503882389F0853089F08091EB005D
:100C600085FD0FC02091E4003091E5004217530745
:100C7000F9F29150E1F684E0089582E0089583E06E
:100C8000089581E008958091D70387FF13C0809174
:100C9000E80082FF06C08091E8008B778093E8002F
:100CA00004C08091D5038111F2CF08958091D503BE
:100CB0008823D9F38091E80080FFF8CF8091E80085
:100CC0008E77ECCF982F9093E900242F762F50E069
:100CD000891731F07091EC002091ED005091F000F7
:100CE00021FD07C09F5F973071F78093E90081E095
:100CF00008953091EB003E7F3093EB003091ED0092
:100D00003D7F3093ED003091EB0031603093EB008C
:100D10007093EC002093ED005093F0002091EE00D2
:100D200027FDE0CF80E00895B0E0A0E0EAE9F6E03A
:100D30000C94C131C8EDD0E088818F7E8883E7EDC7
:100D4000F0E080818160808384E082BF81E08093D5
:100D5000C70388818E7F888302EE10E0F80110823D
:100D60001092DA0081EEC82ED12CF6011082888113
:100D70008F77888388818068888388818F7D888346
:100D800019BC1092D5031092D6031092D40310927E
:100D9000D30390EEE92EF12CF70180818B7F8083C5
:100DA00088818160888342E060E080E00E94620682
:100DB000F60180818E7F8083F8018081816080834D
:100DC000808188608083F70180818E7F8083888125
:100DD00080618883CDB7DEB7E8E00C94DD31FC019B
:100DE0008091DD039091DE0386179707A0F06115CF
:100DF000710529F49091E8009E779093E80090E0C7
:100E00006115710551F4911108C08091E80082FFCD
:100E100034C080E00895BC01F2CF8091D5038823CF
:100E2000C1F18530C1F18091E80083FD30C080912F
:100E3000E80082FDEACF8091E80080FFE1CF809159
:100E4000F3002091F200382F6115710519F0283058
:100E5000310558F091E02830310509F090E02091FB
:100E6000E8002E772093E800CBCF81918093F100AA
:100E7000615071092F5F3F4FE7CF8091D5038823E1
:100E800041F0853041F08091E80083FFBECF81E0E2
:100E9000089582E0089583E008950895089580916B
:100EA000CA0308952FB7F8946091C3037091C403E7
:100EB0008091C5039091C6032FBF0895FC01680F70
:100EC000791F8FEF91E32191822728E030E087FF9F
:100ED00009C0880F892721503109C9F7E617F7079C
:100EE00091F70895880FF7CFFA01811101C0FB0136
:100EF00009950895EFE8F3E011828281846082838E
:100F0000089580911904982F9E7F61F4817082600A
:100F10008093190480911C04873918F086E9809326
:100F20001C0408958A31B0F381708861F1CFAF92CB
:100F3000BF92DF92EF92FF920F931F93CF93DF93B5
:100F4000082F162FE901E42FF0E0EB56FB4F61115B
:100F500010C0E4915E2F4E2F4983E8835A83DF91BE
:100F6000CF911F910F91FF90EF90DF90BF90AF90C6
:100F70000895E62EF12C4491D42EE42FF0E026E0E3
:100F8000829FC00111242FEF30E0B9010E94A331EC
:100F9000802F90E0880F991F55E5569FD001579FED
:100FA000B00D11248A1B9B0B982F990F890F5901A3
:100FB000AE18BF08AE9ED001AF9EB00DBE9EB00D64
:100FC00011245B2F189F80011124012F1127590133
:100FD000A01AB10AAE9E8001AF9E100DBE9E100DEC
:100FE00011245901A81AB108AE9CC001AF9C900D04
:100FF000BE9C900D1124892F9927281B390B2E9FF9
:10100000C0012F9F900D3E9F900D1124E92F62305B
:101010007105A1F050F46115710509F49DCF61309F
:10102000710581F0EB2F512F97CF6430710569F076
:1010300080F06630710509F48FCFF4CFE42F4B2F89
:10104000592F8ACFE42F412F87CFEB2F542F492FD1
:1010500083CF4B2F5D2DE12F7FCF90917F01882390
:1010600041F09F5F90937F0110927C0110927B0171
:1010700008959150F7CFE4E7F1E0828591E0892768
:10108000828710861782089580917D01811114C096
:1010900080917F01811110C080917E0181110CC06F
:1010A0009091D40296959695969581E02091750140
:1010B000921380E08170089581E0FCCFCF93DF939D
:1010C000EDE8F1E083819481A581B681E90188830F
:1010D0009983AA83BB831482138216821582DF91BF
:1010E000CF91089580E0089563E070E08EE392E090
:1010F0000E945E0790913D02891318C0E0913E0264
:10110000EC30A4F488E0E802F0011124EF5FFE4F18
:101110000680F781E02D309749F021E632E04091DA
:10112000400261E472E080913F0209950895E8E28F
:10113000F2E0878980933101808D80934401089586
:10114000F894E82FE295EF70F0E031A1282F2F708E
:1011500081E090E001C0880F2A95EAF7982F9095DA
:10116000932391A392A1892B82A378940895972F1A
:101170007830B8F46630A8F48730B0F470E026E038
:10118000929F600D711D1124FB0190E3899FE00D7A
:10119000F11D1124EE0FFF1FEF52FE4F8591949128
:1011A000089580E090E0089581E0FCCF811522E56C
:1011B000920780F5811530E5930708F0ABC0883EB3
:1011C0009105A0F4803E910558F4853A910548F4C4
:1011D0008430910528F48130910511F090E080E091
:1011E00008958D3C9105D0F390650895811540E4F4
:1011F000940708F044C0811550E2950708F0A3C099
:10120000811561E0960750F320E0392FA901482BA2
:10121000CA010895803872E59707A8F4803622E560
:10122000920708F05AC0803432E5930708F03FC0B7
:10123000803242E5940730F18F7190E0982F882733
:10124000816F906A0895803C52E5950760F4282FDD
:101250002F71803A924508F456C0822F90E0982F63
:10126000882790620895803E72E5970708F0B6CF10
:10127000982F882788279F71806F906A08959F70A4
:10128000906A0895282F2695269550E2259F900173
:101290001124837041E050E0BA0102C0660F771F4D
:1012A0008A95E2F7CB01822B932B9D680895282F16
:1012B00026952695277070E2279F90011124837050
:1012C00041E050E0BA0102C0660F771F8A95E2F74D
:1012D000CB01822B932B9C680895282F2695269569
:1012E000277070E2279F90011124837041E050E045
:1012F000BA0102C0660F771F8A95E2F7CB01822BF5
:10130000932B9A680895822F90E0982F8827846FF6
:10131000906A08959C0195E0369527959A95E1F796
:101320002F7030E0322F2227482F4F7150E084FF7A
:1013300005C084E0440F551F8A95E1F7C901842B4D
:10134000952B906908959F718CCF80911902882305
:1013500031F010921902109218021092170208959B
:1013600080959091C80398239093C8030895809125
:1013700018049091DF03981301C008958F5F877060
:10138000FACFCF92DF92FF920F931F93CF93DF9309
:101390006C010091930380911A02082BC7E0D0E002
:1013A00010E0FC2EC8010C2E02C0959587950A947A
:1013B000E2F780FD0CC02197A0F7F12C8F2DDF9173
:1013C000CF911F910F91FF90DF90CF900895B601BC
:1013D0008C2F0E94B7080E94D608019761F3EECFC8
:1013E000CF93DF93EC010E94C109BE010E94B708B0
:1013F0000E94D608DF91CF910895292F983078F573
:10140000863068F590E036E0239F800D911D112411
:10141000682F677023E0969587952A95E1F7FC0180
:10142000EE0FFF1FE80FF91FED50FE4F50E040E0B8
:1014300080E0219130E0062E02C0369527950A946F
:10144000E2F721703327042E01C0220F0A94EAF735
:10145000822B4F5F5F4F4330510559F7089580E06D
:101460000895292F983098F5863088F590E036E079
:10147000239F800D911D1124282F277041E001C06A
:10148000440F2A95EAF723E0969587952A95E1F788
:10149000FC01EE0FFF1FE80FF91FED50FE4F30E08B
:1014A00020E070E05191DF011197CB01022E02C0C4
:1014B000969587950A94E2F7817081958527842314
:1014C00085278C932F5F3F4F2330310559F70895BF
:1014D00080931A020895FC0124812223C1F08081A7
:1014E00091810E94F00992959F70963091F058F486
:1014F000925F9F70923058F4803F19F030F4883E2C
:1015000030F481E008959A5FF4CF843FD1F380E016
:101510000895883EB0F3813FD1F7F3CF982F92958D
:101520009F7011F0892F94E0282F2695269511F0B1
:101530009E5F822F869509F09F5F892F0895A6E010
:10154000B0E0E5EAFAE00C94C63149835A83498158
:101550005A819923A1F0222391F0CA010E94C10966
:10156000182F682F89819A810E94310A69817A81B6
:10157000812F0E94B7082696E3E00C94E231CA015D
:101580000E94FD09182FF2CF9C019A9581159F4169
:1015900030F4832F817031FF03C08260089580E0B2
:1015A0000895CF93C82F80919A018C1751F00E9413
:1015B000520760939B0170939C0180939D019093CF
:1015C0009E01C0939A01CF910895CF93C82F0E9496
:1015D0008E0A91E0863009F090E0892F0E94D10AAE
:1015E000C0939303CF91089521E030E001C0220F12
:1015F0008A95EAF720958091930382230E94E50A59
:1016000008959091D402809589238093D402282F45
:10161000277089F4891779F09091A50292FF0BC089
:101620008695869586950E94F40A1092D4021092AF
:101630000D0210920C02089521E030E001C0220F4B
:101640008A95EAF780919303822B0E94E50A089518
:10165000B0E0A0E0EEE2FBE00C94C1318C01EB01C4
:10166000E0919F01E11101C0E4E0E150FF0B81E056
:1016700090E06C010E2E02C0CC0CDD1C0A94E2F747
:10168000D801ED90FC90C701B6010E9408329B0181
:10169000CB010E2E02C0880F991F0A94E2F7E81AB8
:1016A000F90AD8011196FC92EE921296ED90FC90F8
:1016B000C701B6010E940832CB0102C0880F991FF2
:1016C000EA95E2F7E81AF90AF801F382E282613852
:1016D000FFEF7F07F4F060387105ECF46D8321387B
:1016E0008FEF3807D4F020383105CCF4822F819564
:1016F0008C83442319F061956D832C838091A00124
:10170000882379F0813079F0CDB7DEB7E8E00C942A
:10171000DD3161E8E3CF6FE7E1CF21E8E7CF2FE7E5
:10172000E5CF1D82F1CF1C82EFCFFC01DB012281CE
:10173000338191E821388FEF38072CF0922F203831
:1017400031050CF09FE712969C931297208131810E
:1017500021388FEF3807A4F0203831059CF4139618
:101760002C931397442339F0919512969C931297DA
:10177000219513962C931182108213821282089560
:1017800021E8EDCF2FE7EBCF8F708A3010F4805D2A
:101790000895895A0895382F20E287FF02C03195B5
:1017A0002DE24AE0832F642F0E94FA31905D9093DE
:1017B000E90181110BC02093E80120E22093E701A9
:1017C00020E22093E60186EE91E00895642F0E94C6
:1017D000FA31905D9093E801832F64E60E94FA311C
:1017E000882361F3805D8093E701EBCF9C01860F36
:1017F000971F37FD07C077FD04C097FF02C08FEF2A
:101800009FE7089577FFFDCF97FDFBCF80E090E83D
:101810000895EDE7F1E083E0DF011D928A95E9F795
:10182000E9E7F1E084E0DF011D928A95E9F7089588
:1018300020917601309177012817390731F0909384
:101840007701809376010E94090C089590917401AC
:10185000981721F0809374010E94090C0895CF938A
:101860009091CF028091C802981323C08091D0023A
:10187000882321F09091C90289131BC08091D10265
:10188000882321F09091CA02891313C08091D3025A
:10189000882321F09091CC0289130BC09091D20241
:1018A000992329F081E02091CB02291303C080E025
:1018B00001C081E0C82FC17080FF0FC0E091C0035C
:1018C000F091C103309749F082E08093CE0204800A
:1018D000F581E02D8EEC92E009959091CF0286E0A3
:1018E000EEECF2E0DF01282F1D922A95E9F79093A4
:1018F000CF02A7ECB2E001900D928A95E1F781E06A
:10190000C11103C0911101C080E08170CF91089591
:101910002FE2280F283078F481E090E001C0880F92
:101920002A95EAF72091CF02662331F0822B80932B
:10193000CF020E942F0C089580958223F8CFCF9379
:10194000DF93282F81E02A3019F02D3031F480E028
:101950000E94330DDF91CF91089580912A069091D6
:101960002B0636E0FC01A4E2B6E001900D923A9518
:10197000E1F730EE320F343A08F458C026E0FC01AB
:1019800011922A95E9F7C0912A06D0912B0646E0DC
:1019900050E0BE0184E296E00E946E329E01245225
:1019A0003440892B41F1C90145E0969587954A95C8
:1019B000E1F741E050E0BA0102C0660F771F8A9557
:1019C000E2F7CB016091220470912304862B972BC0
:1019D000B9016B5F7F4FE5E076956795EA95E1F792
:1019E00002C0440F551F6A95E2F7842B952B909304
:1019F0002304809322042A5F3F4F40912104642FE7
:101A000070E0C9010E94A331481B463010F4240F36
:101A1000311D211572E0370710F030E020E02C5D19
:101A20003B4F30932B0620932A0694CF2052330B42
:101A300046E0429FB001439F700D11246F56784FCE
:101A400046E050E00E9458329ECFCF93DF93EC01E6
:101A5000FE018491811103C0DF91CF9108950E940E
:101A60009F0C2196F5CFCF93382FE0912A06F09165
:101A70002B06E452F44020912104622F70E0CF0144
:101A80000E94A331281B822F332361F066E00E945D
:101A9000EE31C82FC15010F4CF91089580E20E941A
:101AA0009F0CF8CF9F01280F311D2115324018F0EF
:101AB00080E0F0E0E0E08E0F9F2F911D8C5D9B4F4A
:101AC00090932B0680932A06E7CF0F931F93CF9313
:101AD000DF93EC01FC0101900020E9F78F01015038
:101AE0001109C017D10728F0DF91CF911F910F91F5
:101AF000089589910E949F0CF4CF0F931F93CF9369
:101B0000DF938B01EA019091D503943061F58093C6
:101B1000E9008FEF9091E800815095FD06C095EDAA
:101B20009A95F1F700008111F5CF8091E80085FFCB
:101B30001AC00E941206811111C08091E80085FD33
:101B400006C08091E8008E778093E800F2CFF8011C
:101B500081918F018093F100219779F78091E800BE
:101B60008E778093E800DF91CF911F910F910895B8
:101B700046E050E0BC0182E00E947D0D0895CF93C5
:101B8000DF93EC0148E050E0BC0181E00E947D0D54
:101B900088E0FE01ABECB3E001900D928A95E1F78D
:101BA000DF91CF910895609189018091190480FFA0
:101BB00020C08091880143E0849FC00111248B5292
:101BC0009D4F539A2BB1277F3BB138605FB7F89494
:101BD000FC01649FE00DF11D1124BF016817790716
:101BE000D1F45FBF8FE594E00197F1F700C00000EA
:101BF000089580918A0190918B0123E0829FF001EA
:101C00001124EB52FD4F8917A0F611821082128227
:101C10008F5F3396F8CFFC014191CF01E8E03BB9EB
:101C2000000000C047FF2BB9440F000000C000C0F7
:101C300000C02BB900C0EA9591F7D0CF909119045C
:101C400090FF0EC090918A0120918B0133E0939F09
:101C5000F0011124EB52FD4F921718F00E94D30DA2
:101C600008958183608342839F5F3396F5CFA3E01D
:101C7000B0E0EDE3FEE00C94C5318C01809192035D
:101C800081110AC09E012F5F3F4F46E96FEF0E940E
:101C900097078A8180939203F8016481613069F02B
:101CA0008091920340E0662361F040E0623011F4DD
:101CB0004091920380E060E004C06091920340E0B4
:101CC00080E00E941E0EF801848190E0019663E09E
:101CD00070E00E94083284832396E4E00C94E131A2
:101CE000B0E0A0E0E6E7FEE00C94BF317C015B01D0
:101CF0006A018091950201E010E08A3010F40AE058
:101D000010E0C1E0D0E0B501C701F60109958111ED
:101D100004C021960C171D072CF4CDB7DEB7EAE0FE
:101D20000C94DB31CC9F9001CD9F300D300D1124F0
:101D300090E080E045E34A95F1F7000001968217B4
:101D40009307C1F7E0CF80912702811119C088EC79
:101D500090E02091E30027FD10C0EFE3FCE931970C
:101D6000F1F700C000000197A1F782E080932702FD
:101D70000E94F3051092D50303C081E080932702EF
:101D800081E090912702913011F080E0089508954C
:101D90000E94A30E882359F0E091C003F091C10383
:101DA000309729F00190F081E02D0995089580E0A9
:101DB00008950F931F930E94A30E882329F00E9479
:101DC00052071F910F9108950E94520700919602A9
:101DD000109197022091980230919902600F711F23
:101DE000821F931FEECF54985C9A879A8F9885E054
:101DF0008A95F1F7000089B187988F9A90EA9A95B1
:101E0000F1F790E024E0959587952A95E1F7809584
:101E1000909581700895CF93DF9380918D01CEE1ED
:101E20008111CDE180918E01D0E0882329F080914D
:101E30008F01DEE18111DDE10E94F30E81110FC0FF
:101E40008D2F80938801C0938901CD0F10928A0154
:101E5000C0938B01C0938C01DF91CF91089580E0F6
:101E6000F0CF80918D01F90180830E940B0F0895BE
:101E70001092BE0384E08093BF0364E08CE090E0A6
:101E80000E94A83208958093BF03682F8CE090E0F1
:101E90000E94A8320895B0E0A0E0E1E5FFE00C94D4
:101EA000C1316C017B0164E670E088E70E94012F7C
:101EB0008C01E601EC0CFD1C17FD0BC0FE018491AA
:101EC00064E670E00E946D2F8C012196CE15DF052F
:101ED00099F70E94E32F81E00115110509F080E0D8
:101EE000CDB7DEB7E8E00C94DD318091BA03909174
:101EF000BD03911103C091E089270895882369F0FB
:101F000062E070E08CE995E00E944B0F811103C004
:101F10008091BA0308951092BA038091BA03EBCF6F
:101F2000CF93C091BA038091BD038823D1F00E9462
:101F30005207605A75418F4F9F4F6093B60370935D
:101F4000B7038093B8039093B903C11108C062E04E
:101F500070E08AE995E00E944B0F811105C0C091A5
:101F6000BA038C2FCF91089581E08093BA03F7CF05
:101F7000B0E0A0E0EEEBFFE00C94BD3149015A0166
:101F80006B017C010E9481078401A4016A2D7B2DD5
:101F900088E090E00E94BA3294014A2D5B2DB60190
:101FA000C70100E20E943D32622F84E290E00E946D
:101FB000A832CDB7DEB7ECE00C94D931A3E0B0E0A5
:101FC000E4EEFFE00C94C031F82EE62E042FC22E72
:101FD0008091190480FF44C090911A049F1108C099
:101FE00090911B04961304C090911C04941729F03F
:101FF00090919103926090939103E82FE695AE2F14
:10200000B0E0A953BE4F9C9190938F038E7F823096
:1020100059F5402F073908F046E99E012F5F3F4FE1
:102020006E2D8F2D0E9497074B8169818A810E94B6
:102030001E0EF0921A04E0921B0400931C04CC20A4
:1020400079F02091190460911D0470911E043F2DB8
:102050004E2D502F80911F04909120040E94B80FA4
:102060002396E9E00C94DC31923019F7E2506E2FA0
:102070006170B62EE695F0E0EB56FA4F1491D12C34
:1020800060918C01D61618F00E94D30DD2CFD19E4C
:10209000C001112470E00E94A3318F2DB11017C030
:1020A000860F20918A01622F6D0D7727771F9B0184
:1020B000220F331F260F371F2B523D4F402F07395A
:1020C00008F046E96E2D0E949707D394D9CF861B5E
:1020D000E8CFE9E1F4E043812FE0421B08F440E05F
:1020E00021E0628181810E94DE0F0895E9E1F4E040
:1020F00043812FE0420F08F44FEF21E0628181819C
:102100000E94DE0F0895E9E1F4E0628121E1621BA3
:1021100008F460E021E0438181810E94DE0F089590
:10212000E9E1F4E0628121E1620F08F46FEF21E060
:10213000438181810E94DE0F0895E9E1F4E081810D
:1021400021E04381628181510E94DE0F0895E9E11F
:10215000F4E0818121E0438162818F5E0E94DE0F85
:10216000089580911D04882319F0815080931D04E7
:102170002091190430911A0440911B0450911C04C1
:1021800060911D0470911E0480911F0490912004A1
:102190000E94B80F089580911D04833018F48F5F5A
:1021A00080931D042091190430911A0440911B045E
:1021B00050911C0460911D0470911E0480911F04B5
:1021C000909120040E94B80F0895E9E1F4E083E0C3
:1021D000808311828FEF828386E983831482AFE844
:1021E000B3E012968C911297836012968C9375814E
:1021F00023E030E04FEF56E960E0868197810E944E
:10220000B80F0895B0E0A0E0E8E0F1E10C94C2312D
:102210007901C82F880FDD0B41155105A9F0FE018A
:1022200093E0EE0FFF1F9A95E1F7EF5FFE4F81817C
:102230009281885D9D4F208130E04217530708F45A
:102240009A01A9010E947B32CE010E942D31D82E25
:102250008823D1F001151105B9F083E0CC0FDD1F03
:102260008A95E1F7FE01EF5FFE4F438150E00417CE
:10227000150708F4A801CF5FDE4F6C817D81685D92
:102280007D4FC7010E947B328D2DCDB7DEB7E7E0D1
:102290000C94DE31A5E0B0E0E0E5F1E10C94BF3153
:1022A0008D83E62E5A01F22E6801809195028A30C4
:1022B00028F080E02596EAE00C94DB318D818930AE
:1022C000C4F31A8219828A836B832C8363E070E0E3
:1022D000CE0102960E945E078983E0923101F0925E
:1022E000440110E000E030E020E044E050E0BE01B6
:1022F0006F5F7F4F85E00E9402118823D1F24E2D3F
:1023000050E030E020E0B50186E00E940211882311
:1023100081F230E020E041E050E0BE016B5F7F4F92
:1023200087E00E940211882321F20F2D10E0960110
:1023300050E040E070E060E088E00E940211BACF17
:10234000A4E0B0E0E6EAF1E10C94C53140918902E5
:1023500050918A0260918B0270918C022FB7F89491
:102360008091C3039091C403A091C503B091C603AB
:102370002FBF841B950BA60BB70B11E0843691057C
:10238000A105B10518F10E94D90E6E5F7F4F8F4FE6
:102390009F4F69837A838B839C8310E000E030E059
:1023A00020E044E050E0BE016F5F7F4F82E00E947A
:1023B0000211182F882351F00E945207609389025E
:1023C00070938A0280938B0290938C02812F2496C3
:1023D000E4E00C94E131A5E0B0E0E1EFF1E10C9430
:1023E000C3317B0101E010E09E012B5F3F4F50E0C5
:1023F00040E070E060E080E00E940211182F882326
:1024000009F456C04091850250918602609187027E
:10241000709188022FB7F8948091C3039091C40300
:10242000A091C503B091C6032FBF841B950BA60BCB
:10243000B70B84369105A105B10548F464E070E05E
:1024400089E292E00E945E079D81891789F104E08C
:1024500010E09E012F5F3F4F50E040E070E060E0F1
:1024600081E00E940211082F64E070E089E292E0AE
:102470000E945E0711E09D81981310E0102331F156
:102480000E945207609385027093860280938702B0
:102490009093880289819A81AB81BC81809381026B
:1024A00090938202A0938302B093840211E00EC045
:1024B0008091290290912A02A0912B02B0912C02C6
:1024C00089839A83AB83BC831111E4CF809181020D
:1024D00090918202A0918302B0918402F7018083DF
:1024E0009183A283B383812F2596E6E00C94DF319C
:1024F0008F929F92AF92BF92EF92FF920F931F9392
:10250000CF937B01942FB901A801F70180809180BE
:10251000A280B380EFB7F8940091C3031091C40375
:102520002091C5033091C603EFBF081919092A0984
:102530003B09043611052105310518F4C1E0992342
:1025400081F010E000E030E020E00E940211C82F8E
:10255000882339F00E945207F701608371838283D8
:1025600093838C2FCF911F910F91FF90EF90BF908D
:10257000AF909F908F900895A1E0B0E0E2ECF2E17F
:102580000C94C5318091BA03898320913C0290E07C
:1025900041E02817190609F440E001E010E09E012F
:1025A0002F5F3F4F61E972E084E00E94781221962C
:1025B000E4E00C94E131ABE0B0E0E1EEF2E10C9448
:1025C000C53188E0E9E1F4E0DE01119601900D9259
:1025D0008A95E1F780918F0390919003A0919103E8
:1025E00089879A87AB8741E08B85811101C040E0E4
:1025F0000BE010E09E012F5F3F4F6DE872E083E03B
:102600000E9478128111109291032B96E4E00C94B1
:10261000E131A8E0B0E0EFE0F3E10C94C73166EE01
:102620007EEF90E080E00E94C63260E082E090E0C1
:102630000E94A83260E083E090E00E94A8321092ED
:102640001A0260E074E184E090E00E94C63260E02B
:1026500086E090E00E94A8326FEF87E090E00E9451
:10266000A83240E050E0BA0188E090E00E94BA321F
:1026700060E084E290E00E94A83260E087E190E0B0
:102680000E94A83260E08CE090E00E94A83260E0F6
:102690008DE090E00E94A83219821A821B821C826F
:1026A0001D821E821F82188648E050E068E170E0BB
:1026B000CE0101960E94983240E050E0BA0180E2DB
:1026C00090E00E94BA3240E050E0BA018FE090E022
:1026D0000E94BA3240E050E0BA0183E190E00E94EB
:1026E000BA322896E2E00C94E3319091A50292FB75
:1026F000222720F9281779F080FB92F99093A50200
:102700006091A4027091A50284E090E00E94C6321C
:1027100082E00E94010B089528E030E043E060E091
:1027200086E30E94292E0895CF93DF93D82FC62FDA
:102730000E948C138D2F80680E94A12E8C2F0E94E6
:10274000A12E8AEB8A95F1F700C00E94D12E83E476
:1027500092E00197F1F700C00000DF91CF9108955A
:10276000682F893708F068E76093980191E09093AB
:10277000990190918D01992339F06150811101C027
:1027800064E08FE00E9494130895FB0180810E9411
:10279000B013089590919801911101C095E0282FF0
:1027A000880F330BA901490F511DCA0118161906CC
:1027B00014F081E090E00E94B0130895ACE0B0E026
:1027C000E4EEF3E10C94C1314F83588769877A872F
:1027D0008B879C8780918D01882309F446C0809166
:1027E000EB01811107C060E080E50E94941381E055
:1027F0008093EB010E948C1380E50E94A12E8AEB4E
:102800008A95F1F700C00E94B92E0E94B92E0E944D
:10281000B92E7C010E94B92E20E0E22AF82A0E94FB
:10282000B92E8C010E94B92E20E0022B182B0E9499
:10283000D12E85E08A95F1F70000F894B7018091D8
:102840009001909191010E94F60B909391018093D9
:102850009001B80180919201909193010E94F60B32
:10286000909393018093920178940E94A30E882301
:1028700009F469C00E9452070091EC011091ED012A
:102880002091EE013091EF016B017C01C01AD10A59
:10289000E20AF30A97018601083011052105310586
:1028A00008F451C06093EC017093ED018093EE0148
:1028B0009093EF0100919B0110919C0120919D014B
:1028C00030919E01601B710B820B930B623371057B
:1028D0008105910580F4109291011092900110925F
:1028E000930110929201109295011092940110920E
:1028F00097011092960110919A010E94F30E482FB1
:10290000BE01695F7F4F80E991E0112389F10E9448
:10291000280B00919A0110918D010E94F30E41E065
:102920004827BE01695F7F4F84E991E0011719F1E3
:102930000E94280B86E0FE013796A5EAB1E00190DF
:102940000D928A95E1F786E0FE013796DE01119639
:1029500001900D928A95E1F729813A814B815C8142
:102960006D817E8180E090E02C96E8E00C94DD3172
:102970000E94950BCECF0E94950BDCCFCF93C82F32
:102980000E948C138C2F0E94A12E8FE792E001975A
:10299000F1F700C000000E94B92EC82F95E09A956B
:1029A000F1F700000E94D12E85E68A95F1F700002C
:1029B0001092EB018C2FCF910895CF93DF930E945B
:1029C000212E269A0E948C136AE58AE30E949413B2
:1029D0002FEF80E792E0215080409040E1F700C067
:1029E000000082E00E94BE1483E00E94BE1484E0D6
:1029F0000E94BE1485E00E94BE1486E00E94BE14B0
:102A000060E080E10E94941380E00E94BE14D82F01
:102A100081E00E94BE14C82F0E94D12ED23419F436
:102A200081E0C13009F080E0817080938D018823BE
:102A300021F064E08FE00E949413DF91CF9108951C
:102A40001F920F920FB60F9211242F933F934F9323
:102A50005F936F937F938F939F93AF93BF93EF9306
:102A6000FF938091E10082FF09C08091E20082FF24
:102A700005C08091E1008B7F8093E1008091DA00B6
:102A800080FF24C08091D80080FF20C08091DA00B0
:102A90008E7F8093DA008091D90080FF9DC080E115
:102AA00089BD82E189BD09B400FEFDCF81E080933C
:102AB000D5038091C703811109C00E94F3050E94CC
:102AC00094068091E20084608093E2008091E100AE
:102AD00080FF17C08091E20080FF13C08091E20068
:102AE0008E7F8093E2008091E20080618093E2001B
:102AF0008091D80080628093D80019BC85E08093D3
:102B0000D5038091E10084FF2BC08091E20084FF17
:102B100027C080E189BD82E189BD89B5982F917078
:102B200080FFFBCF8091D8008F7D8093D80080916B
:102B3000E1008F7E8093E1008091E2008F7E8093A0
:102B4000E2008091E20081608093E2008091D603F0
:102B5000882309F447C084E08093D5038091D5038E
:102B60008091E10083FF27C08091E20083FF23C0B2
:102B70008091E100877F8093E10082E08093D5031C
:102B80001092D6038091E1008E7F8093E1008091C6
:102B9000E2008E7F8093E2008091E200806180936A
:102BA000E20042E060E080E00E9462068091F00076
:102BB00088608093F000FF91EF91BF91AF919F915A
:102BC0008F917F916F915F914F913F912F910F90D6
:102BD0000FBE0F901F90189519BC1092D50310923C
:102BE000C70374CF8091E30087FD93E09093D503F2
:102BF000B5CF78941F921FB61F9211248F939F9385
:102C0000AF93BF938091C3039091C403A091C50378
:102C1000B091C6030196A11DB11D8093C30390938B
:102C2000C403A093C503B093C603BF91AF919F9116
:102C30008F911F901FBE1F9018959C014FB7F8945D
:102C40008091C3039091C403A091C503B091C603C2
:102C50004FBF821B930B08952FB7F8948091C30345
:102C60009091C403A091C503B091C6032FBF0895EE
:102C70002F923F925F926F927F928F929F92AF922C
:102C8000BF92CF92DF92EF92FF920F931F93CF9359
:102C9000DF938091BD03882309F4FEC08091BB03BC
:102CA0009091BC030E941D16C29708F4D5C00E94E3
:102CB0002C169093BC038093BB0384E294E0909322
:102CC0002B0680932A060E94A30E882309F401C1D3
:102CD00084EA95E00E94250D88EB0E949F0C80916C
:102CE000A4010E94C40B0E949F0C89EB0E949F0CC0
:102CF0008091A3010E94C40B0E949F0C81EA95E081
:102D00000E94250D8091A1019091A20154E0969519
:102D100087955A95E1F70E94C40B0E949F0C809101
:102D2000A1010E94C40B0E949F0C8EE995E00E94B5
:102D3000250D8BEA91E00E94650D83EC95E00E94E1
:102D4000250D8091A7010E94CB0B0E94650D8091FB
:102D5000A8010E94CB0B0E94650D8091AA010E94E0
:102D6000CB0B0E94650D8091A9010E94CB0B0E94A4
:102D7000650D8BEB95E00E94250D809198018111E6
:102D800001C085E00E94CB0B01960E94650D87EB88
:102D900095E00E94250D8091A001882331F08130BB
:102DA00009F48CC08EEA95E002C084EB95E00E94A5
:102DB000250D80919A01882309F483C08CEC95E05D
:102DC0000E94250D8AEA95E00E94250D80919F01C1
:102DD000811101C084E0805D0E949F0C82ED95E02E
:102DE0000E94250DC1E0D0E080919303882309F46F
:102DF0006BC090E00C2E02C0959587950A94E2F77F
:102E000080FF62C08C2F0E94C40B0E949F0C2196F1
:102E1000C830D10549F780E20E949F0C8FEC95E005
:102E20000E94250D80917401882309F44FC08CEC19
:102E300095E00E94250D80917601909177016AE0DE
:102E400070E00E94A331862F0E94CB0B01960E9456
:102E5000650D80E30E949F0C8091220490912304D1
:102E6000892B09F04CC08091BA038823A9F00E94F5
:102E700052070091B6031091B7032091B803309127
:102E8000B903601B710B820B930B6F3F7F4F8F4F0A
:102E90009F4710F40E94750FDF91CF911F910F9102
:102EA000FF90EF90DF90CF90BF90AF909F908F906A
:102EB0007F906F905F903F902F90089581EB95E009
:102EC00076CF89EC95E07CCF80EB9FCF89EC95E0C5
:102ED000B0CFC0E9D0EFDC0F88ED95E00E94250D62
:102EE00011E01D0F8D2F0E949F0CD12F1C13F8CFC6
:102EF00080E00E94330DC05FC03C61F7ADCF809190
:102F0000BD03882309F4AFCF8091B5038111ABCF06
:102F10000E94900F20912204309123042115310545
:102F200009F4A1CF80E041E050E0082F10E01A0141
:102F3000082E02C0220C331C0A94E2F7B10162236E
:102F40007323672B11F48F5FF0CF9091B40390FF40
:102F500095C0880F880F880F809382011092850199
:102F6000895F8093830183E08093860124E630E0CB
:102F700047E050E060E871E088E70E949B2F892BD2
:102F800009F071CFA80125E0440F551F2A95E1F7FC
:102F90008091B40380FF84C0E4E9F3E080E2DF01C4
:102FA0001D928A95E9F7A8EDB1E004ED11E08CEDF2
:102FB000C82E81E0D82E97E0592E772473948D91F6
:102FC000E80129918E01240F352F311D2C5D3B4FD7
:102FD000E82FF0E0EC56FC4F90E080E0652C681A9A
:102FE000872C082E01C0880C0A94EAF77901A12CDD
:102FF000E701B9907E01B820662D6A196770962E98
:10300000062E000C770BDB2D01C0DD0F9A94EAF73A
:103010007195619571096770772701C0B6946A95BB
:10302000EAF7BD2A6081962E9B289082A39468E0DF
:10303000A612DECF019631968830910579F6CA1630
:10304000DB0609F0BCCF04E610E020E230E044E902
:1030500053E060E488E70E94BC2F892B09F003CF7E
:10306000E101C095D0958091220490912304C8235A
:10307000D923D0932304C0932204F5CE8295880FE0
:10308000807680938201980136952795369527950D
:1030900020938501815E809383012093860166CF12
:1030A0004C5D5B4F04E610E020E230E0D2CFAEE1B1
:1030B000B0E0EDE5F8E10C94C6314091CE025091BC
:1030C000CF026091D0027091D1028091D202909192
:1030D000D3020E94DE132093CE023093CF0240939E
:1030E000D0025093D1026093D2027093D30286E053
:1030F000EEECF2E0DE01179601900D928A95E1F771
:1031000086E0FE013796DE011D9601900D928A95AC
:10311000E1F786E0FE013D96DE01119601900D92E9
:103120008A95E1F786E0FE013196AEECB2E00190BF
:103130000D928A95E1F786E0EEECF2E0DE01599619
:1031400001900D928A95E1F786E0FE017996DE0105
:10315000179601900D928A95E1F786E0FE01379669
:10316000DE01119601900D928A95E1F786E0FE014D
:103170003196DE01539601900D928A95E1F786E033
:10318000FE017396DE01179601900D928A95E1F784
:1031900086E0FE013796AEECB2E001900D928A9582
:1031A000E1F786E0EEECF2E0DE01179601900D9279
:1031B0008A95E1F780917401882309F445C08091D4
:1031C000790190917A010E941D16209178012817AB
:1031D0001906D0F580917B0190917C010E941D160B
:1031E000893C910588F189859A85892B9B85892B56
:1031F0009C85892B9885892B91E009F490E0909328
:103200007D010E94440810919303882351F10E948C
:103210002C1690937A018093790110927C01109280
:103220007B0180917501111105C0882369F00E940E
:103230001C0B0AC0212F30E0082E02C035952795BF
:103240000A94E2F720FFF3CF0E942F0C81112FC0C8
:103250008091CD021092CD0281706E96E3E00C94C5
:10326000E23180917501111118C08111EDCF80916B
:10327000790190917A010E941D162091760130917A
:1032800077012817390700F7809175010E94F40A29
:1032900010927A0110927901D7CF212F30E002C02D
:1032A000359527958A95E2F720FFCECFE0CF81E0D4
:1032B00090E0D0CF0E94A30E882319F00E942C1614
:1032C00008950E94D90ECB01089560911904669566
:1032D00070E04BE050E089E691E00E946132892B7A
:1032E00019F481E0809390030E945A1990938A0305
:1032F0008093890380919103846080939103089562
:103300009091190490FF39C09170811137C092607B
:1033100090931904809191038160809391036623B7
:1033200091F02091190430911A0440911B0450919E
:103330001C0460911D0470911E0480911F049091E3
:1033400020040E94B80F60911904669570E04BE06C
:1033500050E089E691E00E946132892BB1F00E9431
:103360007A0781E080938C0320E040911C046091F7
:103370001B0480911A040E94DE0F08958D3010F016
:103380009861C6CF880F982BC3CF0E946519E9CFEB
:10339000809119048695815009F48CE061E00E94C7
:1033A000801908958091190486958F5F8D3008F0FB
:1033B00081E061E00E94801908958091190480FFE6
:1033C00008C0869582588F77893018F40E94D219E8
:1033D000089561E082E00E9480190895A3E1B0E0C1
:1033E000E4EFF9E10C94BC318E01045F1F4F88E0DB
:1033F000D8011D928A95E9F785EBC82E81E0D82E79
:10340000F12CE12CAA24A394B12C2FEB822E21E0E5
:10341000922EF60181916F018F3F09F442C0F8941A
:10342000E82FE295EF70F0E021A18F70A50102C0B6
:10343000440F551F8A95E2F7CA01922F982B91A34A
:1034400092A18095892382A3789400C0E9EBF1E0F2
:10345000712C31E021912F3F09F46BC0A22FA2956E
:10346000AF70B0E090968C9190E02F7002C095956F
:1034700087952A95E2F780FD5CC0832F782A330F69
:103480008E169F0639F7F601319780818F3F11F034
:103490000E94A00850EA5A95F1F7F801EE0DFF1DC1
:1034A00070828FEFE81AF80AA4E0EA16F10409F036
:1034B000B0CF48E050E0B8018AE992E00E946E3255
:1034C000009741F028E0F801AAE9B2E001900D92DE
:1034D0002A95E1F70091A302892B69F181E080939D
:1034E0001F020E942C1690931E0280931D02809151
:1034F0001D0290911E020E941D16059700F110E01A
:1035000009551D4F44E050E06AE972E0C8010E948D
:103510006E32F12C892B51F084E0EAE9F2E0D80117
:1035200001900D928A95E1F7FF24F39410921F0207
:1035300007C080E0A3CF80911F028111D8CFF12C6A
:103540000E94A30EE82EE091A302882309F489C00B
:1035500019821A821B821C820E2F10E009551D4F02
:10356000809195028A3008F046C04BEE51E1BE01D1
:103570006F5F7F4FC8010E94700E882309F460C0FE
:1035800040EA51E1BE016F5F7F4FC8010E94700E9B
:10359000882309F455C04BED52E1BE016F5F7F4FA8
:1035A000C8010E94700E882309F44AC04CEB52E116
:1035B000BE016F5F7F4FC8010E94700E882309F41F
:1035C0003FC0109295028091A20290E044E050E04A
:1035D000BE016F5F7F4F89559D4F0E946E3221E083
:1035E00020932602892BF1F4E12C8E2D8F296396EE
:1035F000EDE00C94D83180912002909121020E943C
:103600001D16843F914008F0B0CF80912602882398
:1036100059F384E0FE013196DF011D928A95E9F7A6
:1036200010922602E091A202F0E0E955FD4F898157
:103630009A81AB81BC8180839183A283B383D5CFF0
:10364000809195028F3F31F08F5F809395028A3091
:1036500008F4B9CF0E942C16909321028093200287
:10366000D4CFF0E0E955FD4F84E0A9E2B2E001904B
:103670000D928A95E1F764E070E089E292E00E94A1
:103680005E078093280280902D0290902E02A090D9
:103690002F02B09030028091220290912302A091DB
:1036A0002402B091250288169906AA06BB06D1F01D
:1036B0008092220290922302A0922402B0922502CC
:1036C0000E94A30E81110EC00E945207861A970A0B
:1036D000A80AB90A8092960290929702A092980244
:1036E000B09299028BE0E1E3F2E0DE0111960190E5
:1036F0000D928A95E1F72981822F8695DA80CB8019
:10370000BC800A851B8510923B021123F9F010FF43
:103710000AC09091190420FF20C091609093190471
:1037200060E00E94801911FF06C020E04B2D6C2D37
:103730008D2D0E94DE0F12FF04C00023D9F00E94DD
:10374000651913FF03C081E080938C0380913C02D4
:10375000882399F00E94900F48CF9E7F9093190480
:103760000E947A07809191038160809391030E9467
:10377000D30DD9CF0E947A07E4CF0E94750F35CFC1
:103780008091C80390911602892B8093DE0180916D
:103790001902882319F10E942C16209117023091EA
:1037A0001802821B930B883B9B4010F00E94A509D6
:1037B0008091DE0190911902892B8093DE0120E037
:1037C00080EE91E0FC013191CF0131112F5FF1E0EA
:1037D000863E9F07B9F721110E94A50948E050E0F5
:1037E0006EE072E08EED91E00E946E32892BA9F0BE
:1037F00088E0EEEDF1E0AEE0B2E001900D928A9546
:10380000E1F7E091C003F091C103309731F00280FD
:10381000F381E02D8EED91E009950895E0EEF1E061
:1038200086E0DF011D928A95E9F7109216020E9448
:10383000C01B0895AAE2B0E0E0E2FCE10C94C631BE
:1038400087ED93E02091F100FC012193CF01F3E09B
:103850008F3D9F07B9F78091D803833009F470C07A
:10386000B8F4813009F447C0823009F4B3C08091C4
:10387000E80083FF80C28091D7039091D8039A30EB
:1038800008F079C2E92FF0E0E252FD4C0C941C32B2
:103890008A3009F48EC08B3009F46FC0893039F753
:1038A0008091D703813219F78091DB039091DC037B
:1038B0000297E8F68091E800877F8093E800809186
:1038C000E80082FF38C09091F3008091F2000297E7
:1038D00031F48091F100813011F0863021F4809133
:1038E000F1008093CA038091E8008B778093E80011
:1038F0000E944306BCCF8091D703813A09F0B7CF2D
:103900008091E800877F8093E8008091DB039091AD
:10391000DC03892B61F468E08BEC93E070E00E949B
:10392000EF068091E8008B778093E800A0CF60E0FD
:1039300090E080E0F3CF8091D5038111C0CF97CF85
:103940008091D703813A09F092CF8091DB03909167
:10395000DC03892B09F08BCF8091E800877F80936F
:10396000E8008091E80080FFFCCF80918701809380
:10397000F1008091E8008E77B9CF8091D703813232
:1039800009F075CF8091DB039091DC03892B09F05E
:103990006ECF8091E800877F8093E8000E94430605
:1039A0008091D903809387011092C8030E940E1C56
:1039B0005ECF8091D703813209F059CF8091E80022
:1039C000877F8093E8000E9443068091DA0380930A
:1039D000C9034DCF8091D703813A09F048CF809138
:1039E000E800877F8093E8008091E80080FFFCCFAB
:1039F0008091C903BCCF803899F0823809F0BBC1EF
:103A00008091DB038F70873008F0B5C18093E900A7
:103A10008091EB0085FB882780F91092E90006C0B1
:103A20008091D3039091D403911182609091E8002A
:103A3000977F9093E8008093F1001092F1008091BD
:103A4000E8008E7794C1882309F482C1823009F09E
:103A500092C18091D903811185C18091DB038F7060
:103A60002FEF280F263008F086C18093E9002091BF
:103A7000EB0020FF77C1933031F48091EB0080623E
:103A80008093EB006FC19091EB0090619093EB00FD
:103A900021E030E001C0220F8A95EAF72093EA0086
:103AA0001092EA008091EB008860EACF811163C137
:103AB0001091D9031F778091E3008078812B809348
:103AC000E3008091E800877F8093E8000E9443062E
:103AD0008091E80080FFFCCF8091E30080688093B4
:103AE000E30082E0111183E08093D50344C1805844
:103AF000823008F040C18091D9039091DA038C3D67
:103B000023E09207A1F583E08A838AE289834FB795
:103B1000F894DE01139620E03EE051E2E32FF0E05E
:103B200050935700E49120FF03C0E295EF703F5F90
:103B3000EF708E2F90E0EA30C0F0C7968D939D9382
:103B40002F5F243159F74FBF8091E800877F809322
:103B5000E8006AE270E0CE0101960E94EF068091D3
:103B6000E8008B778093E80006C1C096E7CF4091CC
:103B7000DB035091DC03292F33272330310509F46F
:103B800044C078F52130310509F46FC08BE390E033
:103B9000E8E1F7E02230310509F0EDC02091E800BE
:103BA000277F2093E8002091DD033091DE03821708
:103BB000930708F49C0140E02115310509F064C029
:103BC000411162C08091E80082FDC9CF8091D50388
:103BD000882329F2853019F28091E80083FFF2CF23
:103BE000BECF21323105A9F12232310509F0C3C01F
:103BF0004115510509F443C04130510509F0BBC0DE
:103C000089E490E0EBE8F6E0C9CF9927813091058F
:103C1000C1F0009759F0029709F0ADC0E5E6F7E072
:103C2000E4918E2F90E0E5E6F7E007C0EDE8F7E0DD
:103C3000E4918E2F90E0EDE8F7E0009709F49BC047
:103C4000ADCFEBE7F7E0E4918E2F90E0EBE7F7E004
:103C5000F4CF4115510571F04130510509F08BC089
:103C600089E090E0E3E4F7E099CF82E190E0E3E5DA
:103C7000F7E094CF89E090E0EAE2F7E08FCF84E4C8
:103C800090E0E4EDF6E08ACF8091D503882309F433
:103C900066CF853009F463CF8091E80083FD5FCF64
:103CA0008091E80082FD8ECF8091E80080FF84CF74
:103CB0009091F3008091F2002115310519F08830C0
:103CC000910550F041E0089709F040E08091E8004C
:103CD0008E778093E80070CF44914093F100319645
:103CE000215031090196E8CF803809F044C0809115
:103CF000E800877F8093E8008091D6038093F100ED
:103D00009ECE811138C01091D9031230A0F5809158
:103D1000E800877F8093E8001093D6030E94430653
:103D2000112311F084E005C08091E30087FDFACFF4
:103D300081E08093D50342E061EC81E00E9462065D
:103D400042E261EC82E00E9462068091D50313C0DA
:103D50008091D903813079F481E0933009F080E0DB
:103D60008093D4031092E9008091E800877F8093CC
:103D7000E8000E9443068091E80083FF0AC080911A
:103D8000E800877F8093E8008091EB008062809359
:103D9000EB00AA96E3E00C94E2311F920F920FB66B
:103DA0000F9211242F933F934F935F936F937F93C1
:103DB0008F939F93AF93BF93CF93DF93EF93FF9333
:103DC000D091E900DF708091EC00C82FC17080FDB8
:103DD000C0E81092E9008091F000877F8093F000A6
:103DE00078940E941A1C1092E9008091F00088607B
:103DF0008093F000CD2BCF70C093E900FF91EF913D
:103E0000DF91CF91BF91AF919F918F917F916F91F2
:103E10005F914F913F912F910F900FBE0F901F9088
:103E200018951092C8030E940E1C2FEF84E39CE0AB
:103E3000215080409040E1F700C0000088E19AE006
:103E40000FB6F894A895809360000FBE9093600021
:103E5000FFCF882341F080959091160289238093AB
:103E600016020E94C01B0895882339F09091160213
:103E7000982B909316020E94C01B0895882321F06E
:103E80000E94B0090E94C01B0895882339F09091C8
:103E9000C803982B9093C8030E94C01B08958823E1
:103EA00049F19CEF980F913A80F4E0EEF1E026EEB4
:103EB00031E09191891303C0DF0111971C922E17F5
:103EC0003F07B9F70E94C01B089590E2980F983001
:103ED00050F4877091E001C0990F8A95EAF7892F15
:103EE0000E94B009EFCF93E3980F933118F460E08C
:103EF0000E94880C08950F931F93CF93C82F882397
:103F000041F18CEF8C0F813AB0F500EE11E086EEB6
:103F100091E0F8012191C21701F18E179F07D1F7A7
:103F2000EFEF80E0D8019D918D01C91781F0EF3F3F
:103F300019F4911101C0E82F8F5F863099F7EF3F98
:103F400031F00E2E000CFF0BE252FE4FC2830E9496
:103F5000C01BCF911F910F910895E0EEF1E02191E8
:103F6000C21303C0DF0111971C928E179F07B9F788
:103F70000E94C01BD5CF80E28C0F883068F4C770D8
:103F800021E030E001C0220FCA95EAF78091C80312
:103F9000822B8093C803DBCF83E38C0F8331C8F679
:103FA00061E08C2F0E94880CD4CF1F93CF93DF93B6
:103FB000182FC5E0D0E0893311F4C0E5D0E0812F9F
:103FC0000E947B1F8FE99FE00197F1F700C000007E
:103FD0002197C1F7812F0E944F1FDF91CF911F9131
:103FE0000895B0E0A0E0E7EFFFE10C94C231E82FC4
:103FF000F0E0E55FF94FD490282F26952695269579
:1040000030E0F901E550FA4F0491877010E0082E76
:1040100002C0159507950A94E2F701701127F9017E
:10402000E551FA4FE490F12C082E02C0F594E79484
:104030000A94E2F791E0E922FF24F901E552FA4FF0
:10404000C491D0E002C0D595C7958A95E2F7C170BA
:10405000DD270115110519F081EE0E947B1FE11487
:10406000F10419F086EE0E947B1F8D2D0E94D51F52
:10407000E114F10419F086EE0E944F1F011511059D
:1040800019F081EE0E944F1FCD2B19F08CE20E9497
:10409000D51FCDB7DEB7E7E00C94DE319091BF03BA
:1040A000923071F48A3050F490E009966AE070E042
:1040B0000E940832875A0E94D51F08958650FBCF70
:1040C00096EF980F963020F0805D0E94F11F0895C2
:1040D000895AFBCF8F929F92AF92BF92EF92FF923D
:1040E0000F931F93CF93DF934B015C01D091BF03DC
:1040F0008CE1E82EF12C07E010E021E0D501C401AD
:104100000E2C04C0B695A795979587950A94D2F77B
:10411000C82FCF70222339F0D43051F4CA3040F088
:1041200080E00E944E208C2F0E944E2020E005C08F
:10413000C111F9CF04301105B4F30150110984E025
:10414000E81AF1080F3F1007C9F6DF91CF911F91D0
:104150000F91FF90EF90BF90AF909F908F90089538
:10416000CF92DF92EF92FF920F931F93CF938C0128
:104170007B016C0180EEC81AD108C8010E94C40AF4
:10418000C82F98E0C916D10408F50E94451F802F5A
:104190000E947B1F8FE99FE00197F1F700C00000AC
:1041A00091E0E91AF108B1F7802F0E944F1F88E0D3
:1041B000C816D10470F48C2F0E943E1FCF911F911E
:1041C0000F91FF90EF90DF90CF9008950E94341FE1
:1041D000DECF8C2F0E94291FF1CFB0E0A0E0E3EFEB
:1041E000F0E20C94BF318C01DC0114968C91149791
:1041F000882309F490C121E04C9111965C911197AC
:1042000012966C91129713967C91139715969C9128
:104210000E949F0AEC0180917401882309F46BC00D
:10422000C032B2E5DB0708F053C0C115E2E5DE0796
:1042300008F0B1C0C115F0E4DF07E0F5C11520E2D8
:10424000D20708F0D8C0C03ED10548F0C83ED1051D
:1042500008F44CC0C11531E0D30708F047C0D801BD
:1042600014968C91882309F441C0C730BEE7DB0760
:1042700009F4ABC0CE018D5C9109439708F4A5C049
:104280000E944408811132C0F8018581882359F0C9
:1042900080917501209193032111B3C0882309F403
:1042A000B9C00E94090C0E942C1690937C01809347
:1042B0007B011CC0C11580E5D80708F08BC0D80170
:1042C00016968C91807F09F096C08D2F992788C013
:1042D000C03892E5D907C8F5C036A2E5DA0708F07C
:1042E0005AC0C034B2E5DB0708F466C080917F0194
:1042F00087FD10927F01D093A201C093A101D80144
:104300008D919C9111979093A4018093A301FE013C
:104310003497E533F10508F086C0E455FF4FE4918A
:1043200015968C9120EB811102C02E2FE0EBABEAA9
:10433000B1E090E080E03D9132136FC083579E4F13
:10434000DC015E96EC93FE0175C0C03CE2E5DE0741
:1043500068F2C03EF2E5DF0708F081CF20917501D9
:10436000CE018F7199272817190609F0BFCFD80100
:1043700015968C910E942D08F8018681807F8035EA
:1043800009F0B4CF8581882381F180917F0181502C
:1043900080937F01ABCF20917501CE018F7199275A
:1043A0002817190609F0A2CFD80115968C91811112
:1043B0009DCF0E943B089ACF20917501CE018F714D
:1043C00099272817190609F091CFF80185810E94D5
:1043D0002D088CCFCE0175E0969587957A95E1F7FB
:1043E0008F70992720917501ECCF0E943B08809136
:1043F0007F018F5FCDCFF8018681807F09F476CF72
:104400002ECF30E0082E02C0359527950A94E2F7AA
:1044100020FF47CF0E94F40A44CF019686309105D1
:1044200009F089CF90CFCE019A95FE0181159F4169
:1044300008F4FF27D80115968C91E13DF10538F07D
:10444000E93DF10570F0E730BEE7FB0711F1882385
:1044500061F0FE57E031F10540F4E851FD4C0C9459
:104460001C32682F8E2F0E94880CD80115968C91D3
:10447000882309F4ABC08091C8038272FE01E05327
:10448000FC47E830F10508F0A1C0E850FD4C0C9461
:104490001C320E94D10AE9CF80E00E94B013109232
:1044A0009F0180E00E94260C8AE892E00E94180C8E
:1044B00022C04091980120919F0120FB47F9269549
:1044C00023708091740180FB22F980917601909194
:1044D000770162E370E00E94A3315FEF560F550F42
:1044E000550F550F522B6091A001637070E08FE063
:1044F00090E00E94BA328091D402877061F0D801B6
:1045000015968C91882339F08091A50282FF03C013
:1045100082E00E94010BCDB7DEB7EAE00C94DB31FC
:1045200081E00E94CA13E7CF8FEFFBCF8AE0F9CF7B
:1045300086EFF7CF90919A0181E089270E94D10AF6
:10454000DACF80919F01811101C084E08F5F18163E
:104550000CF081E0883008F087E080939F01CBCF9A
:1045600080919F01811101C084E08150F0CF81E0F2
:104570008093A001C0CF1092A001BDCF82E0F8CF00
:104580009091740181E089270E94260CB4CF80911C
:10459000760190917701C296893EE3E09E0708F488
:1045A00085CF88EE93E082CF80917601909177015C
:1045B000C2978436910508F079CF84E690E076CFF3
:1045C000882309F4BDC08FEF0E94380FD7FFA2C027
:1045D000F8018581882309F49DC0EC2FC115F0EC0A
:1045E000DF07E0F0809116029091C803892B90912B
:1045F0001902892B8272FF24F394811101C0F12CDE
:104600000E94C80E86958170FE01F81629F0EE0F03
:10461000EF2FEE1FFF0BF195EF77FF2724E0E29FCE
:10462000F0011124EF51FF4FC590D590E590F49023
:10463000C114D10431E1E306F10408F06BC0C114E8
:10464000D10481E0E806F10428F08091BF038230B4
:1046500009F460C00E94C80E8093F1019091BF03DD
:10466000913029F481FF03C089E30E94D51F809116
:10467000C8038093F0011092C80310921602809133
:10468000BF03823009F48DC008F06AC0882309F4A2
:104690007DC0813009F47EC0EFE3FCE93197F1F78A
:1046A00000C00000C114D104F1E0EF06F10408F4E9
:1046B00091C08091BF0381118DC021E0E21AF10801
:1046C000C701B6014AE096958795779567954A9513
:1046D000D1F778528F4F9F4F0E946A2033E0D32248
:1046E000EE24FF24C701B60174528F4F9F4F0E94E2
:1046F0006A208091BF03823009F48AC008F06DC03F
:10470000882309F476C0813009F477C08091F001E4
:104710008093C803D80115968C918111EBC08091CC
:10472000C8038272FE01E052F847E531F10508F056
:10473000F1C0E050FD4C0C941C32882309F443CFA7
:1047400081E042CF80E00E94430F40CF81E0FBCF69
:1047500082E0F9CF83E0F7CF84E0F5CF85E0F3CFB7
:10476000843099F1853009F097CF65E070E08BE1F6
:1047700091E00E94B02065E070E085E290E00E9448
:10478000B02065E070E088E290E008C082EE0E9410
:104790007B1F82CF65E070E088E193E00E94B0204B
:1047A0007BCF8091F10180FD03C083E50E94D51F7E
:1047B00082EE0E947B1FAFE3BCE91197F1F700C0C6
:1047C000000087E50E94D51F67CF86EE0E94D51FA7
:1047D00088E1F8CFC701B6018ACF843011F1853066
:1047E00009F094CF65E070E088E290E00E94B0208C
:1047F0008DCF82EE0E944F1F89CF8CE20E94D51F81
:104800008091F10181FF82CF89E30E94D51F7ECF85
:1048100082EE0E944F1F8091F10180FD77CF83E5EA
:10482000F4CF88E2F2CF8091190480FF1EC0282FB8
:104830002E7F2093190430911A0440911B0450914B
:104840001C0460911D0470911E0480911F049091BE
:1048500020040E94B80F0E947A0780919103816022
:10486000809391030E94D30D46CE816080931904FA
:1048700061E086950E9480193ECE48EC59E162EDD8
:1048800079E10E94740737CE42ED59E168EC79E195
:10489000F8CF4DE950E167EA70E1F3CF47EA50E124
:1048A0006DE970E1EECF43E850E160E970E1E9CFF6
:1048B00040E950E163E870E1E4CF49E650E166E7A2
:1048C00070E1DFCF46E750E169E670E1DACF41EB16
:1048D00050E16BEC70E1D5CF4BEC50E161EB70E156
:1048E000D0CF61E081E0C6CF0E94DD1904CE61E047
:1048F0008CE0C0CFC330BCE7DB0709F48AC008F006
:104900005BC0C115FCE7DF0709F465C0C130DC47B7
:1049100009F485C0F8018581C081D181882309F41B
:104920008CC0CE010E94C109F82E682FCE010E94D2
:10493000310ABE018F2D0E94B7080E94D608D82FD9
:10494000C92FA82ED8011596CC9015971696BC9015
:10495000B2943FE0B3228091D4028770F1F0EC2C46
:10496000CC20E1F0892F807F803451F080E28D0FE0
:10497000883098F0B11004C0892F807E803269F0B1
:104980008091A50282FF09C082E00E94010B809104
:10499000D4028770EE24E3948111E12CDC2ED294B2
:1049A0002FE0D222BBE0BD1508F4ACC0ED2DF0E045
:1049B000EB5EFC4C0C941C32CB353CE7D30709F47E
:1049C0003AC0CC358CE7D80761F1CA35DC4709F02D
:1049D000A1CF81E02DC01092C8030E940E1CAFEF42
:1049E000B4E3ECE0A150B040E040E1F700C00000CB
:1049F00087E797E7909301088093000888E19AE0A1
:104A00000FB6F894A895809360000FBE9093600055
:104A1000FFCF6FEF7FEF90E080E00E94C6320E94F0
:104A2000111F8091A50282FB882780F991E08927D8
:104A30000E9475136FCF80E0FBCFCE010E94FD096D
:104A4000F82E77CFEC2FEF70FE2EC07F19F0F29486
:104A500090EFF922CC20B9F0FF2069F080E28D0FB1
:104A6000883010F0A11009C08091C803F82AF09294
:104A7000C8030E94C01B8D2F43C080911602F82AE4
:104A8000F0921602F6CF8D2F0E944F1FFF20D1F11A
:104A9000D05ED83010F0A11004C08F2D0E94B00954
:104AA00006C0F09480911602F822F09216020E943D
:104AB000C01B28C0FC2FFF70FF2EC07FC03219F032
:104AC000F29480EFF822AA2059F021E0A21609F40E
:104AD00092C0CC2009F49EC0BB2009F44FC0CBCFBC
:104AE0008091A50282FD46C0CC20F1F1FF2039F073
:104AF0008091C803F82AF092C8030E94C01B80E08E
:104B00000E947B1FAD2DA850BB0B149710F40E9480
:104B1000C80EEE20A9F08091D40280FD11C0F801EA
:104B200015828695869586950E941C0BC8010E9469
:104B3000ED208091D4028695869586950E94F40A90
:104B400020E0D8014C9111965C91119712966C91CE
:104B5000129713967C91139714968C91149715962F
:104B60009C910E949F0AD7CC80E00E944F1FFF209B
:104B700049F293CFCC20D1F0B11004C08F2D0E9408
:104B8000451FC0CF31E0B312BDCFC09119028F2DA8
:104B90008C23F81609F4B6CF0E942C1690931802B5
:104BA00080931702FC2AF0921902ACCFB110AACF61
:104BB0008F2D0E943E1F909119028F2D892369F03D
:104BC0008F2D8095892380931902882389F00E9474
:104BD0002C1690931802809317028091F2019F2D5A
:104BE000982309F48FCFF094F822F092F2018ACF43
:104BF00090E080E0EECFCC2029F085E08B1508F422
:104C000081CFBCCF94E09B1508F47CCF8F2D0E9400
:104C10003E1F78CFBB20D1F3A9E3AA120BC1BFEF8F
:104C2000E7EEF3E0B150E040F040E1F700C00000F3
:104C30008D2F0E944F1F66CF6C2D8D2F0E94880CE8
:104C400061CF8C2F837089F5C1105CCF4D2F4295B9
:104C500046954770440F440F8D2F8F70042E01C06E
:104C6000880F0A94EAF72D2F2071D4FF07C02FE098
:104C700030E001C0220F4A95EAF72095C695C69507
:104C8000C370C23069F050F430911A02C13029F07B
:104C9000822B83230E94680A35CF832B822BFACF85
:104CA000282B80911A028227F5CF8695CC2011F00F
:104CB0008C2F8170882309F425CF4D2F429546957E
:104CC0004770440F440F8D2F8F70042E01C0880F42
:104CD0000A94EAF72D2F2071D4FF07C02FE030E0AF
:104CE00001C0220F4A95EAF72095C695C695C37074
:104CF000C23069F050F430919303C13029F0822B17
:104D000083230E94E50AFECE832B822BFACF282B29
:104D1000809193038227F5CFCF70CC2029F08C2F80
:104D20000E941C0B8D2F2BCF8D2F0E943E1F8C2F8E
:104D30000E94F40AE7CE8D2F92EFA916A9F19A15D9
:104D400070F0A0EFAA16D1F0B1EFAB1691F0CC2025
:104D500009F464C0B1108FCE8C2F8F7129C0E3EF9E
:104D6000AE1649F1F4EFAF12F2CF8091A50282FDA9
:104D70002DC08C2F8F71CC20D9F21AC0CC2079F0A5
:104D800024E02B1508F4BECECF7181E090E001C085
:104D9000880FCA95EAF7909193038927B2CF35E03F
:104DA0003B1508F4AFCEF0CF8C2F8F71C110C0CF60
:104DB0000E941C0BA7CE80E0CC2009F4A2CFCF71BB
:104DC00081E001C0880FCA95EAF79BCFCC20D9F0CB
:104DD000CF718C2F0E941C0B8091A50282FF11C005
:104DE000A8E0CA9FC001112483608093D4028C2F55
:104DF0000E941C0B0E942C1690930D0280930C02B3
:104E000081CE8C2FD5CF81E00E94010BB1E0BB1584
:104E100008F078CE82E00E94010B74CEBB2079F0BE
:104E2000893341F4EFEFF7EE23E0E150F04020400A
:104E3000E1F7FCCE8FE19EE40197F1F7F7CE8C2FDE
:104E40008F7176CFCF93DF9380910B02807F09F033
:104E50004DC080910A02882309F448C0E0911804EB
:104E60005091DF03C0910602D091050260910702C4
:104E70007091080247E05E17C9F18E2F90E0E49F21
:104E8000F0011124E052FC4F2481222391F1489F2C
:104E9000F001499FF00D1124DF01A052BC4F119683
:104EA0002C9111972C1325C02C912D1322C01596EF
:104EB0002C91159721111DC012962D913C91261B06
:104EC000370B283C3105A8F480910B028F7080616C
:104ED00080930B02EA51FC4F80818F708061808348
:104EE00085E092E00E94ED200E94B709DF91CF910A
:104EF0000895FC013196E770BECFA4E1B0E0E3E88D
:104F0000F7E20C94BD318C0186E0F801DE011F96BA
:104F100001900D928A95E1F7F8018481E58095E092
:104F2000A92E92E0B92E90910902911128C08823F0
:104F300019F1EE20F1F0C8010E946B0AF82E8823C7
:104F4000C1F087E0F801D50101900D928A95E1F753
:104F500080910902813031F480910502909106021E
:104F60000E94F0090E9422278F2D6496ECE00C9499
:104F7000D931C8010E94ED20FF24F394F5CFD080F1
:104F8000C18082809380F0900A02209107023091C4
:104F90000802A401421B530BFF2009F4D9C0483C6E
:104FA000510508F092C08823F9F290910602809191
:104FB0000B02282F207F09F056C0C91214C090910F
:104FC0000502D91210C0E11048C08F708061809333
:104FD0000B0285E092E00E94ED2080910B02F80127
:104FE0008683F12CC1CFE11038C06C2D8D2D0E942D
:104FF000D4056C2D8D2D0E94D405E82E8111F1CFA2
:10500000DF86C88A8F8598890E94F009292F22950A
:105010002F70243058F49F70223088F0992399F033
:10502000F8019681907F79F4FE2C9ECF2A5F2F7035
:10503000223068F0C8010E94ED20EF2CF5CF9923B3
:1050400011F0882389F3805E883070F3F3CF803FBE
:1050500058F3815F833070F7E7CF80910B02816056
:1050600080930B02BECFC91207C090910502D912DE
:1050700003C0EE2009F48DC0C8010E946B0A88238A
:1050800009F477CFEE2009F474CF80910B028032BF
:1050900088F02091050230910602398728879B8687
:1050A0008A86909109029C871D868E87CE0108967C
:1050B0000E94ED2087E0F801A5E0B2E001900D929A
:1050C0008A95E1F70E94222757CF90910B02292F52
:1050D000207F51F485E092E00E94ED2087E0F50109
:1050E00011928A95E9F77DCF882309F43DCF80910D
:1050F00006028C1110C080910502D8120CC0E1107C
:105100000AC09683C8010E94ED2087E0F501119244
:105110008A95E9F729CFC8010E946B0A882309F410
:1051200028CFEE2009F425CF80910B02803210F2B7
:1051300020910502309106023A8329839C828B825A
:10514000909109029D831E828F83CE010196B0CF7C
:10515000483C5105D0F6882309F40ECFFE2CEE20F2
:1051600009F407CF809106028C1120C080910502BE
:10517000D8121CC080910B0280FD0FC0982F907F29
:1051800061F08683903F31F0982F907F905F8F7011
:10519000892B8683C8010E94ED2087E0F801A5E0F5
:1051A000B2E001900D928A95E1F7DECEC8010E942F
:1051B0006B0A81117FCF80910B02816080930B027B
:1051C000C8010E94ED20D0CEABE1B0E0EAEEF8E2FB
:1051D0000C94C5314E8B5F8B688F798F8A8F9B8F34
:1051E000092F9111109216021D8A86E0FE01769613
:1051F000DE011F9601900D928A95E1F71A8D80913C
:10520000A50282FF1CC00E942C1620910C02309136
:105210000D02821B930B883B9B4020F08091D402AF
:1052200082FF80C00E942C16209117023091180234
:10523000821B930B883B9B4010F00E94A509112311
:1052400049F021E04F85588969897A89812F902F0B
:105250000E949F0A1B8B0C8B87E0FE013F96DE01AC
:10526000189601900D928A95E1F7CE0108960E945A
:105270007D2781112AC087E0FE013896DE01119654
:1052800001900D928A95E1F78C858823F1F02091A9
:10529000DF0330E0C9010196877099274091180417
:1052A00048171906E9F097E0929FD001939FB00D3F
:1052B0001124A052BC4FFE01319601900D929A9597
:1052C000E1F78093DF030E94B70917E0809118048B
:1052D0009091DF03891314C06B96E4E00C94E131E4
:1052E0001092C8030E940E1C1092DF031092180443
:1052F00087E0E5E0F2E0DF011D928A95E9F7E5CF6E
:10530000819FC001112480529C4F0E947D278823D9
:1053100019F38091180490E0019687709927809383
:105320001804D4CF82E00E94010B7CCFA6E0B0E04D
:10533000ECE9F9E20C94C5310E942C168C018091A5
:105340001B0290911C028017910781F019821A822A
:105350000E942C16682F49815A81792F80E090E0B5
:105360000E94E42810931C0200931B022696E4E09E
:105370000C94E1311F921FB61F9211248F939F93BB
:10538000AF93BF938091C203811113C08091C30377
:105390009091C403A091C503B091C6034196A11D8D
:1053A000B11D8093C3039093C403A093C503B0932E
:1053B000C603BF91AF919F918F911F901FBE1F9009
:1053C0001895CDB7DEB72A970FB6F894DEBF0FBE9B
:1053D000CDBF85B7806885BF85B7806885BF84B736
:1053E000877F84BF0FB6F894A8958091600088618C
:1053F00080936000109260000FBE80E890E00FB6CE
:10540000F89480936100909361000FBE82E798E06A
:105410009093DD018093DC010E94F3050E949406C5
:105420008091E20084608093E20078948091D503BB
:105430008823A1F01091E9001F709091EC00892F52
:10544000817090FD80E8182B1092E9008091E800AF
:1054500083FD0E941A1C1F701093E90082E084BD36
:1054600093E095BD9AEF97BD80936E0010929602DF
:105470001092970210929802109299020E94F30ED5
:105480008093000180910001882309F427C21092C3
:1054900088018EE1809389010E94A30E81110E94F0
:1054A0004130809100018091000194E0811190E0F1
:1054B0009093A30284E0891B8093A20284EF0E9450
:1054C000A00885EF0E94A00886EF0E94A00887EF41
:1054D0000E94A00809EB11E0D8018D918D018F3F4A
:1054E00011F00E94A008B1E00F3B1B07A9F788E06C
:1054F000E7EAF2E0DF01C82E1D92CA94E9F7EAE973
:10550000F2E0DF011D928A95E9F790E080E00E94C9
:105510009232863E9E4F11F00E94091382E090E085
:105520000E9484328093AF0284E090E00E94923225
:105530009093A5028093A40283E090E00E948432BD
:105540000E94680A809193030E948E0A91E086303F
:1055500009F090E0892F0E94D10A8CE090E00E942F
:1055600084328093BF031092BE03843009F0BAC125
:105570000E94A30E882309F4B9C180E08093B4038C
:1055800080E8809321040E94FB2E6BE070E088E8A5
:1055900094E00E944B0F8823E9F18091B40365E009
:1055A00070E081FDA5C183E894E00E944B0F882341
:1055B00089F16DE070E081E794E00E944B0F882351
:1055C00049F10E945207605A75418F4F9F4F609377
:1055D000B6037093B7038093B8039093B903E4E2E2
:1055E000F4E080E092E0DF019C011D922150304008
:1055F000E1F7F0932B06E0932A068FEF9FEF90934D
:1056000023048093220481E08093BD038093BA0336
:105610001092B5038091A60281117BC090E080E0DA
:105620000E949232863E9E4F21F00E9409130E94F2
:10563000E51088E090E00E948C324B015C0184E22E
:1056400090E00E948432282F30E040E050E060E09B
:1056500070E080E090E000E20E942232282939299F
:105660004A295B292093190430931A0440931B04A0
:1056700050931C0460931D0470931E0480931F04B8
:1056800090932004809191038360809391032E7FF7
:1056900089F50E94E51088E090E00E948C326B0151
:1056A0007C0184E290E00E948432282F30E040E0C8
:1056B00050E060E070E080E090E00E942232B22F83
:1056C000A32FF42FE52F5B0197018601BC29A12BA5
:1056D000FE29E32BB0931904A0931A04F0931B0442
:1056E000E0931C0460931D04B0921E0480931F0479
:1056F000909320040E9481070E947A0780911904E8
:1057000080FF04C060E086950E94801981E080934C
:10571000A6020E94A30E811102C00E9444300E9482
:10572000DD140E94A30E81112EC081E39FE09093AF
:10573000500180934F0129E130E030934B012093D9
:105740004A0189E390E090934E0180934D014EE52C
:1057500058E05093580140935701309353012093E0
:105760005201909356018093550145EC53E15093BB
:10577000600140935F0130935B0120935A01909345
:105780005E0180935D0190E080E00E949232863E4F
:105790009E4F79F58FE090E00E948C328B01F82EBD
:1057A000862F8F770E94B013001F0027001F612FE4
:1057B0006370660F602B60939F0112FB882780F94E
:1057C0000E94260C812F887F09F495C016951695A6
:1057D0001695212F30E02F5F3F4F42E3429FC001DB
:1057E000439F900D11240E94180C8F2D837080937D
:1057F000A0010E940B0F84E00E94430F81E691E01C
:105800009093C1038093C00348E1A42EB12C5FEABA
:10581000852E52E0952E8091D50312E1853009F452
:10582000A9C00E94EE1900EB12E027EAE22E22E066
:10583000F22E3FEBC32E31E0D32EB6019701F801D3
:105840009191D9018D919D01DB014D91BD01842381
:10585000B2E0E83BFB0709F499C0981789F30E946E
:10586000A30E282E612CF70171907F01D6018D9136
:105870006D017822F80131908F01371431F1512CEC
:10588000442443943724832D8421B9F02220A9F0A5
:1058900059826A820E942C169C838B83F1E0FD83DF
:1058A00091E0842D872109F490E09E8349815A81FB
:1058B0006B817C818D810E94E4285394440C26E006
:1058C0005212E1CFF80131977082639438E063128D
:1058D000CACF0E94D90E772473945DC08EE1809365
:1058E0008801D8CD84E08093BF0342CE82E046CECB
:1058F0008EE794E05ACE8AE892E075CF8091D50386
:10590000843031F10E94750F0E9457181092C20323
:1059100050E40FB6F894A895A09260000FBE509383
:10592000600083B7817F846083BF83B7816083BF5A
:105930007894889583B78E7F83BF0FB6F894A89527
:1059400080916000886180936000109260000FBEBB
:105950008091D403882371F00E94EE19E7EAF2E007
:10596000AFEBB1E081919D91892309F051C18E1671
:105970009F06C1F78091D503853009F4BFCF1092FF
:10598000C8030E940E1C0E94C80E4BCF981367CF0D
:105990000E949629712C0E94A30E80919003882367
:1059A00009F467C090918F03809119048695891B33
:1059B00080938B0300ED17E08DE4E82E87E0F82E4E
:1059C0009C3041F4E3E9F4E00591149197E3E92E6A
:1059D0009EE0F92E80918C03882361F010928C0355
:1059E0000E945A1990938A038093890310928E0320
:1059F00010928D030E945A192091890330918A03D5
:105A0000AC01421B530B4F3F5F4798F54091BA02E0
:105A10004423B1F01092BA024091B8025091B902F9
:105A2000841B950B8F3F9F4758F4405D5A48509315
:105A3000B9024093B80280919103886080939103EA
:105A4000C0908D03D0908E03020F131F10938A0312
:105A50000093890389E893E0F701099580918D030C
:105A600090918E03892B29F4CD2819F081E0809341
:105A7000BA020E945718882339F00E94D90E0E945A
:105A800038160E94900F04C00E9438167110F9CF8A
:105A90000E94C80E9091BB02891721F08093BB022F
:105AA0000E9452070E94A30E882309F4B4CE0E94DC
:105AB00052072091C202211146C00091BE021091EE
:105AC000BF022091C0023091C1026B017C01C01A5B
:105AD000D10AE20AF30A97018601043F1140210529
